{
  "contractName": "Urnas",
  "abi": [
    {
      "inputs": [],
      "name": "chairperson",
      "outputs": [
        {
          "internalType": "address",
          "name": "",
          "type": "address"
        }
      ],
      "stateMutability": "view",
      "type": "function",
      "constant": true
    },
    {
      "inputs": [
        {
          "internalType": "uint256",
          "name": "",
          "type": "uint256"
        }
      ],
      "name": "votaciones",
      "outputs": [
        {
          "internalType": "uint256",
          "name": "id",
          "type": "uint256"
        },
        {
          "internalType": "bytes32",
          "name": "name",
          "type": "bytes32"
        }
      ],
      "stateMutability": "view",
      "type": "function",
      "constant": true
    },
    {
      "inputs": [
        {
          "internalType": "address",
          "name": "",
          "type": "address"
        }
      ],
      "name": "votantes",
      "outputs": [
        {
          "internalType": "uint256",
          "name": "weight",
          "type": "uint256"
        },
        {
          "internalType": "address",
          "name": "addres",
          "type": "address"
        }
      ],
      "stateMutability": "view",
      "type": "function",
      "constant": true
    },
    {
      "inputs": [
        {
          "internalType": "uint256",
          "name": "_id",
          "type": "uint256"
        },
        {
          "internalType": "bytes32",
          "name": "_name",
          "type": "bytes32"
        },
        {
          "internalType": "bytes32[]",
          "name": "_candidatos",
          "type": "bytes32[]"
        }
      ],
      "name": "crearVotacion",
      "outputs": [],
      "stateMutability": "nonpayable",
      "type": "function"
    },
    {
      "inputs": [
        {
          "internalType": "uint256",
          "name": "_id",
          "type": "uint256"
        }
      ],
      "name": "showVotacion",
      "outputs": [
        {
          "components": [
            {
              "internalType": "uint256",
              "name": "id",
              "type": "uint256"
            },
            {
              "internalType": "bytes32",
              "name": "name",
              "type": "bytes32"
            },
            {
              "internalType": "bytes32[]",
              "name": "candidatos",
              "type": "bytes32[]"
            }
          ],
          "internalType": "struct Urnas.Votacion",
          "name": "",
          "type": "tuple"
        }
      ],
      "stateMutability": "view",
      "type": "function",
      "constant": true
    },
    {
      "inputs": [],
      "name": "showIds",
      "outputs": [
        {
          "internalType": "uint256[]",
          "name": "id",
          "type": "uint256[]"
        }
      ],
      "stateMutability": "view",
      "type": "function",
      "constant": true
    }
  ],
  "bytecode": "0x6080604052600060015534801561001557600080fd5b506109a7806100256000396000f3fe608060405234801561001057600080fd5b50600436106100625760003560e01c80632e4176cf1461006757806349a5ddd7146100855780635acf57b5146100b5578063619f3bb4146100e6578063626088d314610104578063a92284d014610120575b600080fd5b61006f610151565b60405161007c919061076e565b60405180910390f35b61009f600480360381019061009a9190610557565b610175565b6040516100ac91906107ab565b60405180910390f35b6100cf60048036038101906100ca9190610557565b610216565b6040516100dd9291906107f6565b60405180910390f35b6100ee61023a565b6040516100fb9190610789565b60405180910390f35b61011e60048036038101906101199190610580565b610292565b005b61013a6004803603810190610135919061052e565b61039a565b6040516101489291906107cd565b60405180910390f35b60008054906101000a900473ffffffffffffffffffffffffffffffffffffffff1681565b61017d6103de565b6005828154811061018a57fe5b906000526020600020906003020160405180606001604052908160008201548152602001600182015481526020016002820180548060200260200160405190810160405280929190818152602001828054801561020657602002820191906000526020600020905b8154815260200190600101908083116101f2575b5050505050815250509050919050565b60036020528060005260406000206000915090508060000154908060010154905082565b6060600480548060200260200160405190810160405280929190818152602001828054801561028857602002820191906000526020600020905b815481526020019060010190808311610274575b5050505050905090565b826003600085815260200190815260200160002060000181905550816003600085815260200190815260200160002060010181905550806003600085815260200190815260200160002060020190805190602001906102f2929190610402565b5060048390806001815401808255809150506001900390600052602060002001600090919091909150556005604051806060016040528085815260200184815260200183815250908060018154018082558091505060019003906000526020600020906003020160009091909190915060008201518160000155602082015181600101556040820151816002019080519060200190610392929190610402565b505050505050565b60026020528060005260406000206000915090508060000154908060010160009054906101000a900473ffffffffffffffffffffffffffffffffffffffff16905082565b60405180606001604052806000815260200160008019168152602001606081525090565b82805482825590600052602060002090810192821561043e579160200282015b8281111561043d578251825591602001919060010190610422565b5b50905061044b919061044f565b5090565b5b80821115610468576000816000905550600101610450565b5090565b60008135905061047b8161092c565b92915050565b600082601f83011261049257600080fd5b81356104a56104a08261084c565b61081f565b915081818352602084019350602081019050838560208402820111156104ca57600080fd5b60005b838110156104fa57816104e08882610504565b8452602084019350602083019250506001810190506104cd565b5050505092915050565b60008135905061051381610943565b92915050565b6000813590506105288161095a565b92915050565b60006020828403121561054057600080fd5b600061054e8482850161046c565b91505092915050565b60006020828403121561056957600080fd5b600061057784828501610519565b91505092915050565b60008060006060848603121561059557600080fd5b60006105a386828701610519565b93505060206105b486828701610504565b925050604084013567ffffffffffffffff8111156105d157600080fd5b6105dd86828701610481565b9150509250925092565b60006105f383836106e2565b60208301905092915050565b600061060b8383610750565b60208301905092915050565b610620816108e6565b82525050565b600061063182610894565b61063b81856108c4565b935061064683610874565b8060005b8381101561067757815161065e88826105e7565b9750610669836108aa565b92505060018101905061064a565b5085935050505092915050565b600061068f8261089f565b61069981856108d5565b93506106a483610884565b8060005b838110156106d55781516106bc88826105ff565b97506106c7836108b7565b9250506001810190506106a8565b5085935050505092915050565b6106eb816108f8565b82525050565b6106fa816108f8565b82525050565b60006060830160008301516107186000860182610750565b50602083015161072b60208601826106e2565b50604083015184820360408601526107438282610626565b9150508091505092915050565b61075981610922565b82525050565b61076881610922565b82525050565b60006020820190506107836000830184610617565b92915050565b600060208201905081810360008301526107a38184610684565b905092915050565b600060208201905081810360008301526107c58184610700565b905092915050565b60006040820190506107e2600083018561075f565b6107ef6020830184610617565b9392505050565b600060408201905061080b600083018561075f565b61081860208301846106f1565b9392505050565b6000604051905081810181811067ffffffffffffffff8211171561084257600080fd5b8060405250919050565b600067ffffffffffffffff82111561086357600080fd5b602082029050602081019050919050565b6000819050602082019050919050565b6000819050602082019050919050565b600081519050919050565b600081519050919050565b6000602082019050919050565b6000602082019050919050565b600082825260208201905092915050565b600082825260208201905092915050565b60006108f182610902565b9050919050565b6000819050919050565b600073ffffffffffffffffffffffffffffffffffffffff82169050919050565b6000819050919050565b610935816108e6565b811461094057600080fd5b50565b61094c816108f8565b811461095757600080fd5b50565b61096381610922565b811461096e57600080fd5b5056fea26469706673582212204d96e4a3d043160febfcac81482a96ab3b2f1f7639eac17d748a9d4e0453099264736f6c63430007010033",
  "immutableReferences": {},
  "source": "// SPDX-License-Identifier: GPL-3.0\npragma solidity >=0.7.0 <0.9.0;\npragma experimental ABIEncoderV2;\n\n/**\n * @title Urnas\n * @dev Implements voting process along with vote delegation\n */\ncontract Urnas {\n    struct Voto {\n        address id_Votante; // address candidato\n        bytes32 id_Votacion; // hash votacion\n        int32 weigth; // candidato elegido\n    }\n\n    struct Votante {\n        uint256 weight; // vote value\n        address addres; // adress wallet\n        bytes32[] voted; // id de votacion + if true, that person already voted\n    }\n\n    struct Votacion {\n        // If you can limit the length to a certain number of bytes,\n        // always use one of bytes1 to bytes32 because they are much cheaper\n        uint256 id; // hash\n        bytes32 name; // short name (up to 32 bytes)\n        bytes32[] candidatos; // Array de int\n    }\n\n    address public chairperson;\n    uint256 randNonce = 0;\n    mapping(address => Votante) public votantes;\n    // mapping(address => Votacion) public votaciones;\n    mapping(uint256 => Votacion) public votaciones;\n    uint256[] ids;\n    Votacion[] proposals;\n\n    // Votacion[] proposals;\n\n    // Votacion[] public votaciones;\n\n    /**\n     * @dev Return the list of options of the porposal.\n     * @param _id id of porposal\n     * @param _name name of porposal\n     * @param _candidatos name of porposal\n     */\n    function crearVotacion(\n        uint256 _id,\n        bytes32 _name,\n        bytes32[] memory _candidatos\n    ) public {\n        votaciones[_id].id = _id;\n        votaciones[_id].name = _name;\n        votaciones[_id].candidatos = _candidatos;\n        ids.push(_id);\n        proposals.push(\n            Votacion({id: _id, name: _name, candidatos: _candidatos})\n        );\n\n        // votantes[chairperson].weight = 1;\n        // 'Proposal({...})' creates a temporary\n        // Proposal object and 'proposals.push(...)'\n        // appends it to the end of 'proposals'.\n    }\n\n    // function showVotacion(uint256 _id) public view returns (Votacion memory) {\n    //     return votaciones[_id];\n    // }\n\n    function showVotacion(uint256 _id) public view returns (Votacion memory) {\n        return proposals[_id];\n    }\n\n    // function showVotaciones() public view returns (Votacion[] memory) {\n    //     return votaciones;\n    // }\n\n    function showIds() public view returns (uint256[] memory id) {\n        return ids;\n    }\n\n    // function vote(uint proposal) public {\n    //     Votante storage sender = votantes[msg.sender];\n    //     require(sender.weight != 0, \"Has no right to vote\");\n    //     require(!sender.voted, \"Already voted.\");\n    //     sender.voted = true;\n    //     sender.vote = proposal;\n\n    //     // If 'proposal' is out of the range of the array,\n    //     // this will throw automatically and revert all\n    //     // changes.\n    //     proposals[proposal].voteCount += sender.weight;\n    // }\n\n    // function getData()\n    //     external\n    //     view\n    //     returns (bytes32 name, bytes32[] memory candidatos)\n    // {\n    //     for (uint256 i = 0; i < votaciones.length;  {\n    //         Votacion memory votacion = votaciones[i];\n    //         votacion.name = name;\n    //         votacion.candidatos = candidatos;\n\n    //         return (name, candidatos);\n    //     }\n    // }\n\n    // /**\n    //  * @dev Give 'voter' the right to vote on this ballot. May only be called by 'chairperson'.\n    //  * @param candidatos data de la votacion\n    //  */\n    // function getVotacion(bytes32 votacionHash)\n    //     public\n    //     view\n    //     returns (bytes32[] memory candidatos)\n    // {\n    //     for (uint256 i = 0; i < votaciones.length; i++) {\n    //         if (votaciones[i].id == votacionHash) {\n    //             Votacion storage sender = votaciones[i];\n\n    //             candidatos = sender.candidatos;\n    //         }\n    //     }\n\n    //     return (candidatos);\n    // }\n\n    // /**\n    //  * @dev Give 'voter' the right to vote on this ballot. May only be called by 'chairperson'.\n    //  * @param votante address of voter\n    //  */\n    // function giveRightToVote(address votante) public {\n    //     require(\n    //         msg.sender == chairperson,\n    //         \"Only chairperson can give right to vote.\"\n    //     );\n    //     require(!votantes[votante].voted, \"The voter already voted.\");\n    //     require(votantes[votante].weight == 0);\n    //     votantes[votante].weight = 1;\n    // }\n\n    /**\n     * @dev Give your vote (including votes delegated to you) to proposal 'proposals[proposal].name'.\n     * @param votacion index of proposal in the proposals array\n     */\n\n    // function vote(bytes32[] calldata votacion, uint256 weight) public {\n    //     Votante storage sender = votantes[msg.sender];\n    //     require(sender.weight != 0, \"No tienes permiso para votar.\");\n\n    //     sender.Votacion[1] = votacion;\n    //     sender.weight = weight;\n    //     // If 'proposal' is out of the range of the array,\n    //     // this will throw automatically and revert all\n    //     // changes.\n    //     votaciones[votacion].voteCount += sender.weight;\n    // }\n\n    // /**\n    //  * @dev Computes the winning proposal taking all previous votes into account.\n    //  * @return winningProposal_ index of winning proposal in the proposals array\n    //  */\n    // function winningProposal() public view returns (uint256 winningProposal_) {\n    //     uint256 winningVoteCount = 0;\n    //     for (uint256 v = 0; v < votaciones.length; v++) {\n    //         if (votaciones[v].voteCount > winningVoteCount) {\n    //             winningVoteCount = votaciones[v].voteCount;\n    //             winningProposal_ = v;\n    //         }\n    //     }\n    // }\n\n    // /**\n    //  * @dev Calls winningProposal() function to get the index of the winner contained in the proposals array and then\n    //  * @return winnerName_ the name of the winner\n    //  */\n    // function winnerName() public view returns (bytes32 winnerName_) {\n    //     winnerName_ = votaciones[winningProposal()].name;\n    // }\n}\n",
  "sourcePath": "/home/oswill/Escritorio/BACKUP-2022/reactApp/contracts/Urnas.sol",
  "compiler": {
    "name": "solc",
    "version": "0.7.1+commit.f4a555be.Emscripten.clang"
  },
  "schemaVersion": "3.4.5",
  "updatedAt": "2022-04-24T11:31:48.208Z",
  "networkType": "ethereum",
  "devdoc": {
    "details": "Implements voting process along with vote delegation",
    "kind": "dev",
    "methods": {
      "crearVotacion(uint256,bytes32,bytes32[])": {
        "details": "Return the list of options of the porposal.",
        "params": {
          "_candidatos": "name of porposal",
          "_id": "id of porposal",
          "_name": "name of porposal"
        }
      }
    },
    "title": "Urnas",
    "version": 1
  },
  "userdoc": {
    "kind": "user",
    "methods": {},
    "version": 1
  }
}