{
  "contractName": "Urnas",
  "abi": [
    {
      "inputs": [],
      "name": "chairperson",
      "outputs": [
        {
          "internalType": "address",
          "name": "",
          "type": "address"
        }
      ],
      "stateMutability": "view",
      "type": "function",
      "constant": true
    },
    {
      "inputs": [
        {
          "internalType": "uint256",
          "name": "",
          "type": "uint256"
        }
      ],
      "name": "urnas",
      "outputs": [
        {
          "internalType": "uint256",
          "name": "id",
          "type": "uint256"
        },
        {
          "internalType": "uint256",
          "name": "si",
          "type": "uint256"
        },
        {
          "internalType": "uint256",
          "name": "no",
          "type": "uint256"
        },
        {
          "internalType": "uint256",
          "name": "abstencion",
          "type": "uint256"
        }
      ],
      "stateMutability": "view",
      "type": "function",
      "constant": true
    },
    {
      "inputs": [
        {
          "internalType": "uint256",
          "name": "",
          "type": "uint256"
        }
      ],
      "name": "votaciones",
      "outputs": [
        {
          "internalType": "uint256",
          "name": "id",
          "type": "uint256"
        },
        {
          "internalType": "bytes32",
          "name": "name",
          "type": "bytes32"
        },
        {
          "internalType": "bytes",
          "name": "debate",
          "type": "bytes"
        },
        {
          "internalType": "uint256",
          "name": "voteCount",
          "type": "uint256"
        }
      ],
      "stateMutability": "view",
      "type": "function",
      "constant": true
    },
    {
      "inputs": [
        {
          "internalType": "address",
          "name": "",
          "type": "address"
        }
      ],
      "name": "votantes",
      "outputs": [
        {
          "internalType": "uint256",
          "name": "weight",
          "type": "uint256"
        },
        {
          "internalType": "address",
          "name": "addres",
          "type": "address"
        },
        {
          "internalType": "bool",
          "name": "voted",
          "type": "bool"
        }
      ],
      "stateMutability": "view",
      "type": "function",
      "constant": true
    },
    {
      "inputs": [
        {
          "internalType": "uint256",
          "name": "_id",
          "type": "uint256"
        },
        {
          "internalType": "bytes32",
          "name": "_name",
          "type": "bytes32"
        },
        {
          "internalType": "bytes",
          "name": "_debate",
          "type": "bytes"
        },
        {
          "internalType": "bytes32[]",
          "name": "_candidatos",
          "type": "bytes32[]"
        }
      ],
      "name": "crearVotacion",
      "outputs": [],
      "stateMutability": "nonpayable",
      "type": "function"
    },
    {
      "inputs": [
        {
          "internalType": "uint256",
          "name": "_id",
          "type": "uint256"
        }
      ],
      "name": "showVotacion",
      "outputs": [
        {
          "components": [
            {
              "internalType": "uint256",
              "name": "id",
              "type": "uint256"
            },
            {
              "internalType": "bytes32",
              "name": "name",
              "type": "bytes32"
            },
            {
              "internalType": "bytes",
              "name": "debate",
              "type": "bytes"
            },
            {
              "internalType": "bytes32[]",
              "name": "candidatos",
              "type": "bytes32[]"
            },
            {
              "internalType": "uint256",
              "name": "voteCount",
              "type": "uint256"
            }
          ],
          "internalType": "struct Urnas.Votacion",
          "name": "",
          "type": "tuple"
        }
      ],
      "stateMutability": "view",
      "type": "function",
      "constant": true
    },
    {
      "inputs": [],
      "name": "showIds",
      "outputs": [
        {
          "internalType": "uint256[]",
          "name": "id",
          "type": "uint256[]"
        }
      ],
      "stateMutability": "view",
      "type": "function",
      "constant": true
    },
    {
      "inputs": [],
      "name": "showNames",
      "outputs": [
        {
          "internalType": "bytes32[]",
          "name": "name",
          "type": "bytes32[]"
        }
      ],
      "stateMutability": "view",
      "type": "function",
      "constant": true
    },
    {
      "inputs": [
        {
          "internalType": "uint256",
          "name": "proposal",
          "type": "uint256"
        },
        {
          "internalType": "uint256",
          "name": "weigth",
          "type": "uint256"
        }
      ],
      "name": "vote",
      "outputs": [],
      "stateMutability": "nonpayable",
      "type": "function"
    },
    {
      "inputs": [
        {
          "internalType": "uint256",
          "name": "proposal",
          "type": "uint256"
        }
      ],
      "name": "getVotes",
      "outputs": [
        {
          "components": [
            {
              "internalType": "uint256",
              "name": "id",
              "type": "uint256"
            },
            {
              "internalType": "uint256",
              "name": "si",
              "type": "uint256"
            },
            {
              "internalType": "uint256",
              "name": "no",
              "type": "uint256"
            },
            {
              "internalType": "uint256",
              "name": "abstencion",
              "type": "uint256"
            }
          ],
          "internalType": "struct Urnas.Urna",
          "name": "results_",
          "type": "tuple"
        }
      ],
      "stateMutability": "view",
      "type": "function",
      "constant": true
    },
    {
      "inputs": [],
      "name": "winningProposal",
      "outputs": [
        {
          "internalType": "uint256",
          "name": "winningProposal_",
          "type": "uint256"
        }
      ],
      "stateMutability": "view",
      "type": "function",
      "constant": true
    }
  ],
  "bytecode": "0x6080604052600060015534801561001557600080fd5b5061145e806100256000396000f3fe608060405234801561001057600080fd5b50600436106100a95760003560e01c80635acf57b5116100715780635acf57b514610169578063609ff1bd1461019c578063619f3bb4146101ba578063a92284d0146101d8578063b384abef1461020a578063ff98109914610226576100a9565b806301e6e585146100ae5780632e4176cf146100ca57806349a5ddd7146100e85780634dc7e5871461011857806359f3dba114610136575b600080fd5b6100c860048036038101906100c39190610cd7565b610256565b005b6100d26103e7565b6040516100df919061108e565b60405180910390f35b61010260048036038101906100fd9190610cae565b61040b565b60405161010f9190611108565b60405180910390f35b610120610558565b60405161012d91906110a9565b60405180910390f35b610150600480360381019061014b9190610cae565b6105b0565b60405161016094939291906111c8565b60405180910390f35b610183600480360381019061017e9190610cae565b6105e0565b604051610193949392919061117c565b60405180910390f35b6101a46106a8565b6040516101b1919061112a565b60405180910390f35b6101c261070c565b6040516101cf91906110cb565b60405180910390f35b6101f260048036038101906101ed9190610c85565b610764565b60405161020193929190611145565b60405180910390f35b610224600480360381019061021f9190610d6a565b6107bb565b005b610240600480360381019061023b9190610cae565b6109b9565b60405161024d91906110ed565b60405180910390f35b836004600086815260200190815260200160002060000181905550826004600086815260200190815260200160002060010181905550816004600086815260200190815260200160002060020190805190602001906102b6929190610a0e565b50806004600086815260200190815260200160002060030190805190602001906102e1929190610a8e565b506005849080600181540180825580915050600190039060005260206000200160009091909190915055600683908060018154018082558091505060019003906000526020600020016000909190919091505560076040518060a0016040528086815260200185815260200184815260200183815260200160008152509080600181540180825580915050600190039060005260206000209060050201600090919091909150600082015181600001556020820151816001015560408201518160020190805190602001906103b7929190610a0e565b5060608201518160030190805190602001906103d4929190610a8e565b5060808201518160040155505050505050565b60008054906101000a900473ffffffffffffffffffffffffffffffffffffffff1681565b610413610adb565b6007828154811061042057fe5b90600052602060002090600502016040518060a00160405290816000820154815260200160018201548152602001600282018054600181600116156101000203166002900480601f0160208091040260200160405190810160405280929190818152602001828054600181600116156101000203166002900480156104e65780601f106104bb576101008083540402835291602001916104e6565b820191906000526020600020905b8154815290600101906020018083116104c957829003601f168201915b505050505081526020016003820180548060200260200160405190810160405280929190818152602001828054801561053e57602002820191906000526020600020905b81548152602001906001019080831161052a575b505050505081526020016004820154815250509050919050565b606060068054806020026020016040519081016040528092919081815260200182805480156105a657602002820191906000526020600020905b815481526020019060010190808311610592575b5050505050905090565b60026020528060005260406000206000915090508060000154908060010154908060020154908060030154905084565b6004602052806000526040600020600091509050806000015490806001015490806002018054600181600116156101000203166002900480601f0160208091040260200160405190810160405280929190818152602001828054600181600116156101000203166002900480156106985780601f1061066d57610100808354040283529160200191610698565b820191906000526020600020905b81548152906001019060200180831161067b57829003601f168201915b5050505050908060040154905084565b6000806000905060005b6007805490508110156107075781600460008381526020019081526020016000206004015411156106fa57600460008281526020019081526020016000206004015491508092505b80806001019150506106b2565b505090565b6060600580548060200260200160405190810160405280929190818152602001828054801561075a57602002820191906000526020600020905b815481526020019060010190808311610746575b5050505050905090565b60036020528060005260406000206000915090508060000154908060010160009054906101000a900473ffffffffffffffffffffffffffffffffffffffff16908060010160149054906101000a900460ff16905083565b6000600360003373ffffffffffffffffffffffffffffffffffffffff1673ffffffffffffffffffffffffffffffffffffffff168152602001908152602001600020905060018160010160146101000a81548160ff02191690831515021790555081816000018190555082600260008581526020019081526020016000206000018190555060008214156108bc576001600260008581526020019081526020016000206001016000828254019250508190555060006002600085815260200190815260200160002060020160008282540192505081905550600060026000858152602001908152602001600020600301600082825401925050819055506109b4565b6001821415610939576000600260008581526020019081526020016000206001016000828254019250508190555060016002600085815260200190815260200160002060020160008282540192505081905550600060026000858152602001908152602001600020600301600082825401925050819055506109b3565b60028214156109b2576000600260008581526020019081526020016000206001016000828254019250508190555060006002600085815260200190815260200160002060020160008282540192505081905550600160026000858152602001908152602001600020600301600082825401925050819055505b5b5b505050565b6109c1610b0d565b600260008381526020019081526020016000206040518060800160405290816000820154815260200160018201548152602001600282015481526020016003820154815250509050919050565b828054600181600116156101000203166002900490600052602060002090601f016020900481019282601f10610a4f57805160ff1916838001178555610a7d565b82800160010185558215610a7d579182015b82811115610a7c578251825591602001919060010190610a61565b5b509050610a8a9190610b35565b5090565b828054828255906000526020600020908101928215610aca579160200282015b82811115610ac9578251825591602001919060010190610aae565b5b509050610ad79190610b52565b5090565b6040518060a0016040528060008152602001600080191681526020016060815260200160608152602001600081525090565b6040518060800160405280600081526020016000815260200160008152602001600081525090565b5b80821115610b4e576000816000905550600101610b36565b5090565b5b80821115610b6b576000816000905550600101610b53565b5090565b600081359050610b7e816113e3565b92915050565b600082601f830112610b9557600080fd5b8135610ba8610ba38261123a565b61120d565b91508181835260208401935060208101905083856020840282011115610bcd57600080fd5b60005b83811015610bfd5781610be38882610c07565b845260208401935060208301925050600181019050610bd0565b5050505092915050565b600081359050610c16816113fa565b92915050565b600082601f830112610c2d57600080fd5b8135610c40610c3b82611262565b61120d565b91508082526020830160208301858383011115610c5c57600080fd5b610c67838284611390565b50505092915050565b600081359050610c7f81611411565b92915050565b600060208284031215610c9757600080fd5b6000610ca584828501610b6f565b91505092915050565b600060208284031215610cc057600080fd5b6000610cce84828501610c70565b91505092915050565b60008060008060808587031215610ced57600080fd5b6000610cfb87828801610c70565b9450506020610d0c87828801610c07565b935050604085013567ffffffffffffffff811115610d2957600080fd5b610d3587828801610c1c565b925050606085013567ffffffffffffffff811115610d5257600080fd5b610d5e87828801610b84565b91505092959194509250565b60008060408385031215610d7d57600080fd5b6000610d8b85828601610c70565b9250506020610d9c85828601610c70565b9150509250929050565b6000610db28383610f0e565b60208301905092915050565b6000610dca8383611070565b60208301905092915050565b610ddf8161133e565b82525050565b6000610df0826112ae565b610dfa81856112e9565b9350610e058361128e565b8060005b83811015610e36578151610e1d8882610da6565b9750610e28836112cf565b925050600181019050610e09565b5085935050505092915050565b6000610e4e826112ae565b610e5881856112fa565b9350610e638361128e565b8060005b83811015610e94578151610e7b8882610da6565b9750610e86836112cf565b925050600181019050610e67565b5085935050505092915050565b6000610eac826112b9565b610eb6818561130b565b9350610ec18361129e565b8060005b83811015610ef2578151610ed98882610dbe565b9750610ee4836112dc565b925050600181019050610ec5565b5085935050505092915050565b610f0881611350565b82525050565b610f178161135c565b82525050565b610f268161135c565b82525050565b6000610f37826112c4565b610f41818561131c565b9350610f5181856020860161139f565b610f5a816113d2565b840191505092915050565b6000610f70826112c4565b610f7a818561132d565b9350610f8a81856020860161139f565b610f93816113d2565b840191505092915050565b608082016000820151610fb46000850182611070565b506020820151610fc76020850182611070565b506040820151610fda6040850182611070565b506060820151610fed6060850182611070565b50505050565b600060a08301600083015161100b6000860182611070565b50602083015161101e6020860182610f0e565b50604083015184820360408601526110368282610f2c565b915050606083015184820360608601526110508282610de5565b91505060808301516110656080860182611070565b508091505092915050565b61107981611386565b82525050565b61108881611386565b82525050565b60006020820190506110a36000830184610dd6565b92915050565b600060208201905081810360008301526110c38184610e43565b905092915050565b600060208201905081810360008301526110e58184610ea1565b905092915050565b60006080820190506111026000830184610f9e565b92915050565b600060208201905081810360008301526111228184610ff3565b905092915050565b600060208201905061113f600083018461107f565b92915050565b600060608201905061115a600083018661107f565b6111676020830185610dd6565b6111746040830184610eff565b949350505050565b6000608082019050611191600083018761107f565b61119e6020830186610f1d565b81810360408301526111b08185610f65565b90506111bf606083018461107f565b95945050505050565b60006080820190506111dd600083018761107f565b6111ea602083018661107f565b6111f7604083018561107f565b611204606083018461107f565b95945050505050565b6000604051905081810181811067ffffffffffffffff8211171561123057600080fd5b8060405250919050565b600067ffffffffffffffff82111561125157600080fd5b602082029050602081019050919050565b600067ffffffffffffffff82111561127957600080fd5b601f19601f8301169050602081019050919050565b6000819050602082019050919050565b6000819050602082019050919050565b600081519050919050565b600081519050919050565b600081519050919050565b6000602082019050919050565b6000602082019050919050565b600082825260208201905092915050565b600082825260208201905092915050565b600082825260208201905092915050565b600082825260208201905092915050565b600082825260208201905092915050565b600061134982611366565b9050919050565b60008115159050919050565b6000819050919050565b600073ffffffffffffffffffffffffffffffffffffffff82169050919050565b6000819050919050565b82818337600083830152505050565b60005b838110156113bd5780820151818401526020810190506113a2565b838111156113cc576000848401525b50505050565b6000601f19601f8301169050919050565b6113ec8161133e565b81146113f757600080fd5b50565b6114038161135c565b811461140e57600080fd5b50565b61141a81611386565b811461142557600080fd5b5056fea2646970667358221220230fe4c7385bab99d5acc25569cce3957f0fc0d993b6fd54342960b56329046864736f6c63430007010033",
  "immutableReferences": {},
  "source": "// SPDX-License-Identifier: GPL-3.0\npragma solidity >=0.7.0 <0.9.0;\npragma experimental ABIEncoderV2;\n\n/**\n * @title Urnas\n * @dev Implements voting process along with vote delegation\n */\ncontract Urnas {\n    struct Votante {\n        uint256 weight; // vote value\n        address addres; // adress wallet\n        bool voted; // id de votacion. if true, that person already voted\n    }\n\n    struct Votacion {\n        // If you can limit the length to a certain number of bytes,\n        // always use one of bytes1 to bytes32 because they are much cheaper\n        uint256 id; // hash\n        bytes32 name; // short name (up to 32 bytes)\n        bytes debate;\n        bytes32[] candidatos; // Array de int\n        uint256 voteCount;\n    }\n\n    struct Urna {\n        uint256 id; // id votacion\n        uint256 si;\n        uint256 no;\n        uint256 abstencion;\n    }\n\n    address public chairperson;\n    uint256 randNonce = 0;\n    mapping(uint256 => Urna) public urnas;\n    mapping(address => Votante) public votantes;\n    // mapping(address => Votacion) public votaciones;\n    mapping(uint256 => Votacion) public votaciones;\n    uint256[] ids;\n    bytes32[] names;\n    Votacion[] proposals;\n    Urna[] urna;\n\n    // Votacion[] proposals;\n\n    // Votacion[] public votaciones;\n\n    /**\n     * @dev Return the list of options of the porposal.\n     * @param _id id of porposal\n     * @param _name name of porposal\n     * @param _candidatos name of porposal\n     */\n    function crearVotacion(\n        uint256 _id,\n        bytes32 _name,\n        bytes memory _debate,\n        bytes32[] memory _candidatos\n    ) public {\n        votaciones[_id].id = _id;\n        votaciones[_id].name = _name;\n        votaciones[_id].debate = _debate;\n        votaciones[_id].candidatos = _candidatos;\n        ids.push(_id);\n        names.push(_name);\n        proposals.push(\n            Votacion({\n                id: _id,\n                name: _name,\n                debate: _debate,\n                candidatos: _candidatos,\n                voteCount: 0\n            })\n        );\n\n        // votantes[chairperson].weight = 1;\n        // 'Proposal({...})' creates a temporary\n        // Proposal object and 'proposals.push(...)'\n        // appends it to the end of 'proposals'.\n    }\n\n    // function showVotacion(uint256 _id) public view returns (Votacion memory) {\n    //     return votaciones[_id];\n    // }\n\n    function showVotacion(uint256 _id) public view returns (Votacion memory) {\n        return proposals[_id];\n    }\n\n    // function showVotaciones() public view returns (Votacion[] memory) {\n    //     return votaciones;\n    // }\n\n    function showIds() public view returns (uint256[] memory id) {\n        return ids;\n    }\n\n    function showNames() public view returns (bytes32[] memory name) {\n        return names;\n    }\n\n    function vote(uint256 proposal, uint256 weigth) public {\n        Votante storage sender = votantes[msg.sender];\n        sender.voted = true;\n        sender.weight = weigth;\n        urnas[proposal].id = proposal;\n        if (weigth == 0) {\n            urnas[proposal].si += 1;\n            urnas[proposal].no += 0;\n            urnas[proposal].abstencion += 0;\n        } else if (weigth == 1) {\n            urnas[proposal].si += 0;\n            urnas[proposal].no += 1;\n            urnas[proposal].abstencion += 0;\n        } else if (weigth == 2) {\n            urnas[proposal].si += 0;\n            urnas[proposal].no += 0;\n            urnas[proposal].abstencion += 1;\n        }\n        // If 'proposal' is out of the range of the array,\n        // this will throw automatically and revert all\n        // changes.\n    }\n\n    function getVotes(uint256 proposal)\n        public\n        view\n        returns (Urna memory results_)\n    {\n        return urnas[proposal];\n    }\n\n    function winningProposal() public view returns (uint256 winningProposal_) {\n        uint256 winningVoteCount = 0;\n        for (uint256 v = 0; v < proposals.length; v++) {\n            if (votaciones[v].voteCount > winningVoteCount) {\n                winningVoteCount = votaciones[v].voteCount;\n                winningProposal_ = v;\n            }\n        }\n    }\n\n    // function getData()\n    //     external\n    //     view\n    //     returns (bytes32 name, bytes32[] memory candidatos)\n    // {\n    //     for (uint256 i = 0; i < votaciones.length;  {\n    //         Votacion memory votacion = votaciones[i];\n    //         votacion.name = name;\n    //         votacion.candidatos = candidatos;\n\n    //         return (name, candidatos);\n    //     }\n    // }\n\n    // /**\n    //  * @dev Give 'voter' the right to vote on this ballot. May only be called by 'chairperson'.\n    //  * @param candidatos data de la votacion\n    //  */\n    // function getVotacion(bytes32 votacionHash)\n    //     public\n    //     view\n    //     returns (bytes32[] memory candidatos)\n    // {\n    //     for (uint256 i = 0; i < votaciones.length; i++) {\n    //         if (votaciones[i].id == votacionHash) {\n    //             Votacion storage sender = votaciones[i];\n\n    //             candidatos = sender.candidatos;\n    //         }\n    //     }\n\n    //     return (candidatos);\n    // }\n\n    // /**\n    //  * @dev Give 'voter' the right to vote on this ballot. May only be called by 'chairperson'.\n    //  * @param votante address of voter\n    //  */\n    // function giveRightToVote(address votante) public {\n    //     require(\n    //         msg.sender == chairperson,\n    //         \"Only chairperson can give right to vote.\"\n    //     );\n    //     require(!votantes[votante].voted, \"The voter already voted.\");\n    //     require(votantes[votante].weight == 0);\n    //     votantes[votante].weight = 1;\n    // }\n\n    /**\n     * @dev Give your vote (including votes delegated to you) to proposal 'proposals[proposal].name'.\n     * @param votacion index of proposal in the proposals array\n     */\n\n    // function vote(bytes32[] calldata votacion, uint256 weight) public {\n    //     Votante storage sender = votantes[msg.sender];\n    //     require(sender.weight != 0, \"No tienes permiso para votar.\");\n\n    //     sender.Votacion[1] = votacion;\n    //     sender.weight = weight;\n    //     // If 'proposal' is out of the range of the array,\n    //     // this will throw automatically and revert all\n    //     // changes.\n    //     votaciones[votacion].voteCount += sender.weight;\n    // }\n\n    // /**\n    //  * @dev Computes the winning proposal taking all previous votes into account.\n    //  * @return winningProposal_ index of winning proposal in the proposals array\n    //  */\n\n    // /**\n    //  * @dev Calls winningProposal() function to get the index of the winner contained in the proposals array and then\n    //  * @return winnerName_ the name of the winner\n    //  */\n    // function winnerName() public view returns (bytes32 winnerName_) {\n    //     winnerName_ = votaciones[winningProposal()].name;\n    // }\n}\n",
  "sourcePath": "/home/oswill/Escritorio/BACKUP-2022/DAM_M13_ACT03_OscarSachez/contracts/Urnas.sol",
  "compiler": {
    "name": "solc",
    "version": "0.7.1+commit.f4a555be.Emscripten.clang"
  },
  "schemaVersion": "3.4.5",
  "updatedAt": "2022-05-29T16:08:32.835Z",
  "networkType": "ethereum",
  "devdoc": {
    "details": "Implements voting process along with vote delegation",
    "kind": "dev",
    "methods": {
      "crearVotacion(uint256,bytes32,bytes,bytes32[])": {
        "details": "Return the list of options of the porposal.",
        "params": {
          "_candidatos": "name of porposal",
          "_id": "id of porposal",
          "_name": "name of porposal"
        }
      }
    },
    "title": "Urnas",
    "version": 1
  },
  "userdoc": {
    "kind": "user",
    "methods": {},
    "version": 1
  }
}