{
  "contractName": "Urnas",
  "abi": [
    {
      "inputs": [],
      "name": "chairperson",
      "outputs": [
        {
          "internalType": "address",
          "name": "",
          "type": "address"
        }
      ],
      "stateMutability": "view",
      "type": "function"
    },
    {
      "inputs": [
        {
          "internalType": "uint256",
          "name": "",
          "type": "uint256"
        }
      ],
      "name": "votaciones",
      "outputs": [
        {
          "internalType": "bytes32",
          "name": "id",
          "type": "bytes32"
        },
        {
          "internalType": "bytes32",
          "name": "name",
          "type": "bytes32"
        },
        {
          "internalType": "uint256",
          "name": "voteCount",
          "type": "uint256"
        }
      ],
      "stateMutability": "view",
      "type": "function"
    },
    {
      "inputs": [
        {
          "internalType": "address",
          "name": "",
          "type": "address"
        }
      ],
      "name": "votantes",
      "outputs": [
        {
          "internalType": "address",
          "name": "addres",
          "type": "address"
        },
        {
          "internalType": "bool",
          "name": "voted",
          "type": "bool"
        },
        {
          "internalType": "uint256",
          "name": "weight",
          "type": "uint256"
        },
        {
          "internalType": "uint256",
          "name": "vote",
          "type": "uint256"
        },
        {
          "internalType": "uint256",
          "name": "option",
          "type": "uint256"
        }
      ],
      "stateMutability": "view",
      "type": "function"
    },
    {
      "inputs": [
        {
          "internalType": "bytes32",
          "name": "name",
          "type": "bytes32"
        },
        {
          "internalType": "bytes32[]",
          "name": "candidatos",
          "type": "bytes32[]"
        }
      ],
      "name": "crearVotacion",
      "outputs": [],
      "stateMutability": "nonpayable",
      "type": "function"
    },
    {
      "inputs": [
        {
          "internalType": "bytes32",
          "name": "nombreVotacion",
          "type": "bytes32"
        }
      ],
      "name": "getCandidatos",
      "outputs": [
        {
          "internalType": "bytes32[]",
          "name": "opciones",
          "type": "bytes32[]"
        }
      ],
      "stateMutability": "view",
      "type": "function"
    },
    {
      "inputs": [
        {
          "internalType": "uint256",
          "name": "votacion",
          "type": "uint256"
        }
      ],
      "name": "getVotacion",
      "outputs": [
        {
          "internalType": "bytes32",
          "name": "nombreVotacion",
          "type": "bytes32"
        },
        {
          "internalType": "uint256",
          "name": "voteCount",
          "type": "uint256"
        },
        {
          "internalType": "bytes32[]",
          "name": "candidatos",
          "type": "bytes32[]"
        }
      ],
      "stateMutability": "view",
      "type": "function"
    },
    {
      "inputs": [
        {
          "internalType": "address",
          "name": "votante",
          "type": "address"
        }
      ],
      "name": "giveRightToVote",
      "outputs": [],
      "stateMutability": "nonpayable",
      "type": "function"
    },
    {
      "inputs": [
        {
          "internalType": "uint256",
          "name": "votacion",
          "type": "uint256"
        },
        {
          "internalType": "uint256",
          "name": "opcion",
          "type": "uint256"
        }
      ],
      "name": "vote",
      "outputs": [],
      "stateMutability": "nonpayable",
      "type": "function"
    },
    {
      "inputs": [],
      "name": "winningProposal",
      "outputs": [
        {
          "internalType": "uint256",
          "name": "winningProposal_",
          "type": "uint256"
        }
      ],
      "stateMutability": "view",
      "type": "function"
    },
    {
      "inputs": [],
      "name": "winnerName",
      "outputs": [
        {
          "internalType": "bytes32",
          "name": "winnerName_",
          "type": "bytes32"
        }
      ],
      "stateMutability": "view",
      "type": "function"
    }
  ],
  "bytecode": "0x608060405234801561001057600080fd5b5061112b806100206000396000f3fe608060405234801561001057600080fd5b506004361061009e5760003560e01c8063a92284d011610066578063a92284d014610149578063b384abef1461017d578063c4d5349f14610199578063e2ba53f0146101c9578063e353e385146101e75761009e565b80632e4176cf146100a35780635acf57b5146100c1578063609ff1bd146100f3578063834c0a6b146101115780639e7b8d611461012d575b600080fd5b6100ab610219565b6040516100b89190610dc1565b60405180910390f35b6100db60048036038101906100d69190610b43565b61023d565b6040516100ea93929190610e6c565b60405180910390f35b6100fb610274565b6040516101089190610f61565b60405180910390f35b61012b60048036038101906101269190610aef565b6102e8565b005b61014760048036038101906101429190610a9d565b61046b565b005b610163600480360381019061015e9190610a9d565b610622565b604051610174959493929190610ddc565b60405180910390f35b61019760048036038101906101929190610b6c565b610685565b005b6101b360048036038101906101ae9190610ac6565b6107c6565b6040516101c09190610e2f565b60405180910390f35b6101d1610887565b6040516101de9190610e51565b60405180910390f35b61020160048036038101906101fc9190610b43565b6108b4565b60405161021093929190610ea3565b60405180910390f35b60008054906101000a900473ffffffffffffffffffffffffffffffffffffffff1681565b6002818154811061024a57fe5b90600052602060002090600402016000915090508060000154908060010154908060020154905083565b6000806000905060005b6002805490508110156102e357816002828154811061029957fe5b90600052602060002090600402016002015411156102d657600281815481106102be57fe5b90600052602060002090600402016002015491508092505b808060010191505061027e565b505090565b6000336000806101000a81548173ffffffffffffffffffffffffffffffffffffffff021916908373ffffffffffffffffffffffffffffffffffffffff16021790555060003360405160200161033d9190610da6565b60405160208183030381529060405280519060200120905060018060008060009054906101000a900473ffffffffffffffffffffffffffffffffffffffff1673ffffffffffffffffffffffffffffffffffffffff1673ffffffffffffffffffffffffffffffffffffffff1681526020019081526020016000206001018190555060005b6002805490508110156104645760026040518060800160405280848152602001878152602001600081526020018681525090806001815401808255809150506001900390600052602060002090600402016000909190919091506000820151816000015560208201518160010155604082015181600201556060820151816003019080519060200190610454929190610971565b50505080806001019150506103c0565b5050505050565b60008054906101000a900473ffffffffffffffffffffffffffffffffffffffff1673ffffffffffffffffffffffffffffffffffffffff163373ffffffffffffffffffffffffffffffffffffffff16146104f9576040517f08c379a00000000000000000000000000000000000000000000000000000000081526004016104f090610f21565b60405180910390fd5b600160008273ffffffffffffffffffffffffffffffffffffffff1673ffffffffffffffffffffffffffffffffffffffff16815260200190815260200160002060000160149054906101000a900460ff1615610589576040517f08c379a000000000000000000000000000000000000000000000000000000000815260040161058090610f41565b60405180910390fd5b6000600160008373ffffffffffffffffffffffffffffffffffffffff1673ffffffffffffffffffffffffffffffffffffffff16815260200190815260200160002060010154146105d857600080fd5b60018060008373ffffffffffffffffffffffffffffffffffffffff1673ffffffffffffffffffffffffffffffffffffffff1681526020019081526020016000206001018190555050565b60016020528060005260406000206000915090508060000160009054906101000a900473ffffffffffffffffffffffffffffffffffffffff16908060000160149054906101000a900460ff16908060010154908060020154908060030154905085565b6000600160003373ffffffffffffffffffffffffffffffffffffffff1673ffffffffffffffffffffffffffffffffffffffff1681526020019081526020016000209050600081600101541415610710576040517f08c379a000000000000000000000000000000000000000000000000000000000815260040161070790610ee1565b60405180910390fd5b8060000160149054906101000a900460ff1615610762576040517f08c379a000000000000000000000000000000000000000000000000000000000815260040161075990610f01565b60405180910390fd5b60018160000160146101000a81548160ff0219169083151502179055508281600201819055508181600301819055508060010154600284815481106107a357fe5b906000526020600020906004020160020160008282540192505081905550505050565b606060005b6002805490508110156108815782600282815481106107e657fe5b90600052602060002090600402016001015414156108745760006002828154811061080d57fe5b906000526020600020906004020190508060030180548060200260200160405190810160405280929190818152602001828054801561086b57602002820191906000526020600020905b815481526020019060010190808311610857575b50505050509250505b80806001019150506107cb565b50919050565b60006002610893610274565b8154811061089d57fe5b906000526020600020906004020160010154905090565b6000806060600284815481106108c657fe5b9060005260206000209060040201600101549250600284815481106108e757fe5b90600052602060002090600402016002015491506002848154811061090857fe5b906000526020600020906004020160030180548060200260200160405190810160405280929190818152602001828054801561096357602002820191906000526020600020905b81548152602001906001019080831161094f575b505050505090509193909250565b8280548282559060005260206000209081019282156109ad579160200282015b828111156109ac578251825591602001919060010190610991565b5b5090506109ba91906109be565b5090565b5b808211156109d75760008160009055506001016109bf565b5090565b6000813590506109ea816110b0565b92915050565b600082601f830112610a0157600080fd5b8135610a14610a0f82610fa9565b610f7c565b91508181835260208401935060208101905083856020840282011115610a3957600080fd5b60005b83811015610a695781610a4f8882610a73565b845260208401935060208301925050600181019050610a3c565b5050505092915050565b600081359050610a82816110c7565b92915050565b600081359050610a97816110de565b92915050565b600060208284031215610aaf57600080fd5b6000610abd848285016109db565b91505092915050565b600060208284031215610ad857600080fd5b6000610ae684828501610a73565b91505092915050565b60008060408385031215610b0257600080fd5b6000610b1085828601610a73565b925050602083013567ffffffffffffffff811115610b2d57600080fd5b610b39858286016109f0565b9150509250929050565b600060208284031215610b5557600080fd5b6000610b6384828501610a88565b91505092915050565b60008060408385031215610b7f57600080fd5b6000610b8d85828601610a88565b9250506020610b9e85828601610a88565b9150509250929050565b6000610bb48383610c53565b60208301905092915050565b610bd1610bcc8261102d565b61107f565b82525050565b610be08161101b565b82525050565b6000610bf182610fe1565b610bfb8185610ff9565b9350610c0683610fd1565b8060005b83811015610c37578151610c1e8882610ba8565b9750610c2983610fec565b925050600181019050610c0a565b5085935050505092915050565b610c4d8161103f565b82525050565b610c5c8161104b565b82525050565b610c6b8161104b565b82525050565b6000610c7e601d8361100a565b91507f4e6f207469656e6573207065726d69736f207061726120766f7461722e0000006000830152602082019050919050565b6000610cbe600e8361100a565b91507f59612068617320766f7461646f2e0000000000000000000000000000000000006000830152602082019050919050565b6000610cfe60288361100a565b91507f4f6e6c79206368616972706572736f6e2063616e20676976652072696768742060008301527f746f20766f74652e0000000000000000000000000000000000000000000000006020830152604082019050919050565b6000610d6460188361100a565b91507f54686520766f74657220616c726561647920766f7465642e00000000000000006000830152602082019050919050565b610da081611075565b82525050565b6000610db28284610bc0565b60148201915081905092915050565b6000602082019050610dd66000830184610bd7565b92915050565b600060a082019050610df16000830188610bd7565b610dfe6020830187610c44565b610e0b6040830186610d97565b610e186060830185610d97565b610e256080830184610d97565b9695505050505050565b60006020820190508181036000830152610e498184610be6565b905092915050565b6000602082019050610e666000830184610c62565b92915050565b6000606082019050610e816000830186610c62565b610e8e6020830185610c62565b610e9b6040830184610d97565b949350505050565b6000606082019050610eb86000830186610c62565b610ec56020830185610d97565b8181036040830152610ed78184610be6565b9050949350505050565b60006020820190508181036000830152610efa81610c71565b9050919050565b60006020820190508181036000830152610f1a81610cb1565b9050919050565b60006020820190508181036000830152610f3a81610cf1565b9050919050565b60006020820190508181036000830152610f5a81610d57565b9050919050565b6000602082019050610f766000830184610d97565b92915050565b6000604051905081810181811067ffffffffffffffff82111715610f9f57600080fd5b8060405250919050565b600067ffffffffffffffff821115610fc057600080fd5b602082029050602081019050919050565b6000819050602082019050919050565b600081519050919050565b6000602082019050919050565b600082825260208201905092915050565b600082825260208201905092915050565b600061102682611055565b9050919050565b600061103882611055565b9050919050565b60008115159050919050565b6000819050919050565b600073ffffffffffffffffffffffffffffffffffffffff82169050919050565b6000819050919050565b600061108a82611091565b9050919050565b600061109c826110a3565b9050919050565b60008160601b9050919050565b6110b98161101b565b81146110c457600080fd5b50565b6110d08161104b565b81146110db57600080fd5b50565b6110e781611075565b81146110f257600080fd5b5056fea2646970667358221220940ef1b37230982d5bdaf77d88f109ecbd2648116479488deacf8c3fbc40768564736f6c63430007010033",
  "immutableReferences": {},
  "source": "// SPDX-License-Identifier: GPL-3.0\npragma solidity >=0.7.0 <0.9.0;\npragma experimental ABIEncoderV2;\n\n/**\n * @title Urnas\n * @dev Implements voting process along with vote delegation\n */\ncontract Urnas {\n    struct Votante {\n        address addres;\n        bool voted; // if true, that person already voted\n        uint256 weight;\n        uint256 vote; // index of the voted proposal\n        uint256 option; //index of candidate choosen\n    }\n\n    struct Votacion {\n        // If you can limit the length to a certain number of bytes,\n        // always use one of bytes1 to bytes32 because they are much cheaper\n        bytes32 id; //\n        bytes32 name; // short name (up to 32 bytes)\n        uint256 voteCount; // number of accumulated votes\n        bytes32[] candidatos;\n    }\n\n    address public chairperson;\n    mapping(address => Votante) public votantes;\n    Votacion[] public votaciones;\n\n    /**\n     * @dev Return the list of options of the porposal.\n     * @param name name of porposal\n     * @param candidatos name of porposal\n     */\n    function crearVotacion(bytes32 name, bytes32[] memory candidatos) public {\n        uint256 voteCount;\n\n        chairperson = msg.sender;\n        bytes32 id_ = bytes32(keccak256(abi.encodePacked(msg.sender)));\n\n        votantes[chairperson].weight = 1;\n        // 'Proposal({...})' creates a temporary\n        // Proposal object and 'proposals.push(...)'\n        // appends it to the end of 'proposals'.\n        for (uint256 i = 0; i < votaciones.length; i++) {\n            votaciones.push(\n                Votacion({\n                    id: id_,\n                    name: name,\n                    voteCount: 0,\n                    candidatos: candidatos\n                })\n            );\n        }\n    }\n\n    /**\n     * @dev Return the list of options of the porposal.\n     * @param nombreVotacion address of voter\n     */\n    function getCandidatos(bytes32 nombreVotacion)\n        public\n        view\n        returns (bytes32[] memory opciones)\n    {\n        for (uint256 i = 0; i < votaciones.length; i++) {\n            if (votaciones[i].name == nombreVotacion) {\n                Votacion storage sender = votaciones[i];\n                opciones = sender.candidatos;\n            }\n        }\n    }\n\n    /**\n     * @dev Give 'voter' the right to vote on this ballot. May only be called by 'chairperson'.\n     * @param votacion address of voter\n     */\n    function getVotacion(uint256 votacion)\n        public\n        view\n        returns (\n            bytes32 nombreVotacion,\n            uint256 voteCount,\n            bytes32[] memory candidatos\n        )\n    {\n        nombreVotacion = votaciones[votacion].name;\n        voteCount = votaciones[votacion].voteCount;\n        candidatos = votaciones[votacion].candidatos;\n\n        return (nombreVotacion, voteCount, candidatos);\n    }\n\n    /**\n     * @dev Give 'voter' the right to vote on this ballot. May only be called by 'chairperson'.\n     * @param votante address of voter\n     */\n    function giveRightToVote(address votante) public {\n        require(\n            msg.sender == chairperson,\n            \"Only chairperson can give right to vote.\"\n        );\n        require(!votantes[votante].voted, \"The voter already voted.\");\n        require(votantes[votante].weight == 0);\n        votantes[votante].weight = 1;\n    }\n\n    /**\n     * @dev Give your vote (including votes delegated to you) to proposal 'proposals[proposal].name'.\n     * @param votacion index of proposal in the proposals array\n     */\n\n    function vote(uint256 votacion, uint256 opcion) public {\n        Votante storage sender = votantes[msg.sender];\n        require(sender.weight != 0, \"No tienes permiso para votar.\");\n        require(!sender.voted, \"Ya has votado.\");\n        sender.voted = true;\n        sender.vote = votacion;\n        sender.option = opcion;\n        // If 'proposal' is out of the range of the array,\n        // this will throw automatically and revert all\n        // changes.\n        votaciones[votacion].voteCount += sender.weight;\n    }\n\n    /**\n     * @dev Computes the winning proposal taking all previous votes into account.\n     * @return winningProposal_ index of winning proposal in the proposals array\n     */\n    function winningProposal() public view returns (uint256 winningProposal_) {\n        uint256 winningVoteCount = 0;\n        for (uint256 v = 0; v < votaciones.length; v++) {\n            if (votaciones[v].voteCount > winningVoteCount) {\n                winningVoteCount = votaciones[v].voteCount;\n                winningProposal_ = v;\n            }\n        }\n    }\n\n    /**\n     * @dev Calls winningProposal() function to get the index of the winner contained in the proposals array and then\n     * @return winnerName_ the name of the winner\n     */\n    function winnerName() public view returns (bytes32 winnerName_) {\n        winnerName_ = votaciones[winningProposal()].name;\n    }\n}\n",
  "sourcePath": "/home/oswill/Documentos/reactApp/contracts/Urnas.sol",
  "compiler": {
    "name": "solc",
    "version": "0.7.1+commit.f4a555be.Emscripten.clang"
  },
  "schemaVersion": "3.3.4",
  "updatedAt": "2021-06-21T21:54:11.892Z",
  "devdoc": {
    "details": "Implements voting process along with vote delegation",
    "kind": "dev",
    "methods": {
      "crearVotacion(bytes32,bytes32[])": {
        "details": "Return the list of options of the porposal.",
        "params": {
          "candidatos": "name of porposal",
          "name": "name of porposal"
        }
      },
      "getCandidatos(bytes32)": {
        "details": "Return the list of options of the porposal.",
        "params": {
          "nombreVotacion": "address of voter"
        }
      },
      "getVotacion(uint256)": {
        "details": "Give 'voter' the right to vote on this ballot. May only be called by 'chairperson'.",
        "params": {
          "votacion": "address of voter"
        }
      },
      "giveRightToVote(address)": {
        "details": "Give 'voter' the right to vote on this ballot. May only be called by 'chairperson'.",
        "params": {
          "votante": "address of voter"
        }
      },
      "vote(uint256,uint256)": {
        "details": "Give your vote (including votes delegated to you) to proposal 'proposals[proposal].name'.",
        "params": {
          "votacion": "index of proposal in the proposals array"
        }
      },
      "winnerName()": {
        "details": "Calls winningProposal() function to get the index of the winner contained in the proposals array and then",
        "returns": {
          "winnerName_": "the name of the winner"
        }
      },
      "winningProposal()": {
        "details": "Computes the winning proposal taking all previous votes into account.",
        "returns": {
          "winningProposal_": "index of winning proposal in the proposals array"
        }
      }
    },
    "title": "Urnas",
    "version": 1
  },
  "userdoc": {
    "kind": "user",
    "methods": {},
    "version": 1
  }
}