{
  "contractName": "Urnas",
  "abi": [
    {
      "inputs": [],
      "name": "chairperson",
      "outputs": [
        {
          "internalType": "address",
          "name": "",
          "type": "address"
        }
      ],
      "stateMutability": "view",
      "type": "function",
      "constant": true
    },
    {
      "inputs": [
        {
          "internalType": "uint256",
          "name": "",
          "type": "uint256"
        }
      ],
      "name": "votaciones",
      "outputs": [
        {
          "internalType": "uint256",
          "name": "id",
          "type": "uint256"
        },
        {
          "internalType": "bytes32",
          "name": "name",
          "type": "bytes32"
        }
      ],
      "stateMutability": "view",
      "type": "function",
      "constant": true
    },
    {
      "inputs": [
        {
          "internalType": "address",
          "name": "",
          "type": "address"
        }
      ],
      "name": "votantes",
      "outputs": [
        {
          "internalType": "uint256",
          "name": "weight",
          "type": "uint256"
        },
        {
          "internalType": "address",
          "name": "addres",
          "type": "address"
        }
      ],
      "stateMutability": "view",
      "type": "function",
      "constant": true
    },
    {
      "inputs": [
        {
          "internalType": "uint256",
          "name": "_id",
          "type": "uint256"
        },
        {
          "internalType": "bytes32",
          "name": "_name",
          "type": "bytes32"
        },
        {
          "internalType": "bytes32[]",
          "name": "_candidatos",
          "type": "bytes32[]"
        }
      ],
      "name": "crearVotacion",
      "outputs": [],
      "stateMutability": "nonpayable",
      "type": "function"
    },
    {
      "inputs": [
        {
          "internalType": "uint256",
          "name": "_id",
          "type": "uint256"
        }
      ],
      "name": "showVotacion",
      "outputs": [
        {
          "components": [
            {
              "internalType": "uint256",
              "name": "id",
              "type": "uint256"
            },
            {
              "internalType": "bytes32",
              "name": "name",
              "type": "bytes32"
            },
            {
              "internalType": "bytes32[]",
              "name": "candidatos",
              "type": "bytes32[]"
            }
          ],
          "internalType": "struct Urnas.Votacion",
          "name": "",
          "type": "tuple"
        }
      ],
      "stateMutability": "view",
      "type": "function",
      "constant": true
    },
    {
      "inputs": [],
      "name": "showIds",
      "outputs": [
        {
          "internalType": "uint256[]",
          "name": "id",
          "type": "uint256[]"
        }
      ],
      "stateMutability": "view",
      "type": "function",
      "constant": true
    }
  ],
  "bytecode": "0x6080604052600060015534801561001557600080fd5b50610926806100256000396000f3fe608060405234801561001057600080fd5b50600436106100625760003560e01c80632e4176cf1461006757806349a5ddd7146100855780635acf57b5146100b5578063619f3bb4146100e6578063626088d314610104578063a92284d014610120575b600080fd5b61006f610151565b60405161007c91906106ed565b60405180910390f35b61009f600480360381019061009a91906104d6565b610175565b6040516100ac919061072a565b60405180910390f35b6100cf60048036038101906100ca91906104d6565b61020e565b6040516100dd929190610775565b60405180910390f35b6100ee610232565b6040516100fb9190610708565b60405180910390f35b61011e600480360381019061011991906104ff565b61028a565b005b61013a600480360381019061013591906104ad565b610319565b60405161014892919061074c565b60405180910390f35b60008054906101000a900473ffffffffffffffffffffffffffffffffffffffff1681565b61017d61035d565b600360008381526020019081526020016000206040518060600160405290816000820154815260200160018201548152602001600282018054806020026020016040519081016040528092919081815260200182805480156101fe57602002820191906000526020600020905b8154815260200190600101908083116101ea575b5050505050815250509050919050565b60036020528060005260406000206000915090508060000154908060010154905082565b6060600480548060200260200160405190810160405280929190818152602001828054801561028057602002820191906000526020600020905b81548152602001906001019080831161026c575b5050505050905090565b826003600085815260200190815260200160002060000181905550816003600085815260200190815260200160002060010181905550806003600085815260200190815260200160002060020190805190602001906102ea929190610381565b506004839080600181540180825580915050600190039060005260206000200160009091909190915055505050565b60026020528060005260406000206000915090508060000154908060010160009054906101000a900473ffffffffffffffffffffffffffffffffffffffff16905082565b60405180606001604052806000815260200160008019168152602001606081525090565b8280548282559060005260206000209081019282156103bd579160200282015b828111156103bc5782518255916020019190600101906103a1565b5b5090506103ca91906103ce565b5090565b5b808211156103e75760008160009055506001016103cf565b5090565b6000813590506103fa816108ab565b92915050565b600082601f83011261041157600080fd5b813561042461041f826107cb565b61079e565b9150818183526020840193506020810190508385602084028201111561044957600080fd5b60005b83811015610479578161045f8882610483565b84526020840193506020830192505060018101905061044c565b5050505092915050565b600081359050610492816108c2565b92915050565b6000813590506104a7816108d9565b92915050565b6000602082840312156104bf57600080fd5b60006104cd848285016103eb565b91505092915050565b6000602082840312156104e857600080fd5b60006104f684828501610498565b91505092915050565b60008060006060848603121561051457600080fd5b600061052286828701610498565b935050602061053386828701610483565b925050604084013567ffffffffffffffff81111561055057600080fd5b61055c86828701610400565b9150509250925092565b60006105728383610661565b60208301905092915050565b600061058a83836106cf565b60208301905092915050565b61059f81610865565b82525050565b60006105b082610813565b6105ba8185610843565b93506105c5836107f3565b8060005b838110156105f65781516105dd8882610566565b97506105e883610829565b9250506001810190506105c9565b5085935050505092915050565b600061060e8261081e565b6106188185610854565b935061062383610803565b8060005b8381101561065457815161063b888261057e565b975061064683610836565b925050600181019050610627565b5085935050505092915050565b61066a81610877565b82525050565b61067981610877565b82525050565b600060608301600083015161069760008601826106cf565b5060208301516106aa6020860182610661565b50604083015184820360408601526106c282826105a5565b9150508091505092915050565b6106d8816108a1565b82525050565b6106e7816108a1565b82525050565b60006020820190506107026000830184610596565b92915050565b600060208201905081810360008301526107228184610603565b905092915050565b60006020820190508181036000830152610744818461067f565b905092915050565b600060408201905061076160008301856106de565b61076e6020830184610596565b9392505050565b600060408201905061078a60008301856106de565b6107976020830184610670565b9392505050565b6000604051905081810181811067ffffffffffffffff821117156107c157600080fd5b8060405250919050565b600067ffffffffffffffff8211156107e257600080fd5b602082029050602081019050919050565b6000819050602082019050919050565b6000819050602082019050919050565b600081519050919050565b600081519050919050565b6000602082019050919050565b6000602082019050919050565b600082825260208201905092915050565b600082825260208201905092915050565b600061087082610881565b9050919050565b6000819050919050565b600073ffffffffffffffffffffffffffffffffffffffff82169050919050565b6000819050919050565b6108b481610865565b81146108bf57600080fd5b50565b6108cb81610877565b81146108d657600080fd5b50565b6108e2816108a1565b81146108ed57600080fd5b5056fea2646970667358221220679f2ae2eaf72a711bc77ac69f738461345a009aecea7988bcbcf50971de254964736f6c63430007010033",
  "immutableReferences": {},
  "source": "// SPDX-License-Identifier: GPL-3.0\npragma solidity >=0.7.0 <0.9.0;\npragma experimental ABIEncoderV2;\n\n/**\n * @title Urnas\n * @dev Implements voting process along with vote delegation\n */\ncontract Urnas {\n    struct Voto {\n        address id_Votante; // address candidato\n        bytes32 id_Votacion; // hash votacion\n        int32 weigth; // candidato elegido\n    }\n\n    struct Votante {\n        uint256 weight; // vote value\n        address addres; // adress wallet\n        bytes32[] voted; // id de votacion + if true, that person already voted\n    }\n\n    struct Votacion {\n        // If you can limit the length to a certain number of bytes,\n        // always use one of bytes1 to bytes32 because they are much cheaper\n        uint256 id; // hash\n        bytes32 name; // short name (up to 32 bytes)\n        bytes32[] candidatos; // Array de int\n    }\n\n    address public chairperson;\n    uint256 randNonce = 0;\n    mapping(address => Votante) public votantes;\n    // mapping(address => Votacion) public votaciones;\n    mapping(uint256 => Votacion) public votaciones;\n    uint256[] ids;\n\n    // Votacion[] public votaciones;\n\n    /**\n     * @dev Return the list of options of the porposal.\n     * @param _id id of porposal\n     * @param _name name of porposal\n     * @param _candidatos name of porposal\n     */\n    function crearVotacion(\n        uint256 _id,\n        bytes32 _name,\n        bytes32[] memory _candidatos\n    ) public {\n        votaciones[_id].id = _id;\n        votaciones[_id].name = _name;\n        votaciones[_id].candidatos = _candidatos;\n        ids.push(_id);\n\n        // votantes[chairperson].weight = 1;\n        // 'Proposal({...})' creates a temporary\n        // Proposal object and 'proposals.push(...)'\n        // appends it to the end of 'proposals'.\n    }\n\n    function showVotacion(uint256 _id) public view returns (Votacion memory) {\n        return votaciones[_id];\n    }\n\n    function showIds() public view returns (uint256[] memory id) {\n        return ids;\n    }\n\n    // function vote(uint proposal) public {\n    //     Votante storage sender = votantes[msg.sender];\n    //     require(sender.weight != 0, \"Has no right to vote\");\n    //     require(!sender.voted, \"Already voted.\");\n    //     sender.voted = true;\n    //     sender.vote = proposal;\n\n    //     // If 'proposal' is out of the range of the array,\n    //     // this will throw automatically and revert all\n    //     // changes.\n    //     proposals[proposal].voteCount += sender.weight;\n    // }\n\n    // function getData()\n    //     external\n    //     view\n    //     returns (bytes32 name, bytes32[] memory candidatos)\n    // {\n    //     for (uint256 i = 0; i < votaciones.length;  {\n    //         Votacion memory votacion = votaciones[i];\n    //         votacion.name = name;\n    //         votacion.candidatos = candidatos;\n\n    //         return (name, candidatos);\n    //     }\n    // }\n\n    // /**\n    //  * @dev Give 'voter' the right to vote on this ballot. May only be called by 'chairperson'.\n    //  * @param candidatos data de la votacion\n    //  */\n    // function getVotacion(bytes32 votacionHash)\n    //     public\n    //     view\n    //     returns (bytes32[] memory candidatos)\n    // {\n    //     for (uint256 i = 0; i < votaciones.length; i++) {\n    //         if (votaciones[i].id == votacionHash) {\n    //             Votacion storage sender = votaciones[i];\n\n    //             candidatos = sender.candidatos;\n    //         }\n    //     }\n\n    //     return (candidatos);\n    // }\n\n    // /**\n    //  * @dev Give 'voter' the right to vote on this ballot. May only be called by 'chairperson'.\n    //  * @param votante address of voter\n    //  */\n    // function giveRightToVote(address votante) public {\n    //     require(\n    //         msg.sender == chairperson,\n    //         \"Only chairperson can give right to vote.\"\n    //     );\n    //     require(!votantes[votante].voted, \"The voter already voted.\");\n    //     require(votantes[votante].weight == 0);\n    //     votantes[votante].weight = 1;\n    // }\n\n    /**\n     * @dev Give your vote (including votes delegated to you) to proposal 'proposals[proposal].name'.\n     * @param votacion index of proposal in the proposals array\n     */\n\n    // function vote(bytes32[] calldata votacion, uint256 weight) public {\n    //     Votante storage sender = votantes[msg.sender];\n    //     require(sender.weight != 0, \"No tienes permiso para votar.\");\n\n    //     sender.Votacion[1] = votacion;\n    //     sender.weight = weight;\n    //     // If 'proposal' is out of the range of the array,\n    //     // this will throw automatically and revert all\n    //     // changes.\n    //     votaciones[votacion].voteCount += sender.weight;\n    // }\n\n    // /**\n    //  * @dev Computes the winning proposal taking all previous votes into account.\n    //  * @return winningProposal_ index of winning proposal in the proposals array\n    //  */\n    // function winningProposal() public view returns (uint256 winningProposal_) {\n    //     uint256 winningVoteCount = 0;\n    //     for (uint256 v = 0; v < votaciones.length; v++) {\n    //         if (votaciones[v].voteCount > winningVoteCount) {\n    //             winningVoteCount = votaciones[v].voteCount;\n    //             winningProposal_ = v;\n    //         }\n    //     }\n    // }\n\n    // /**\n    //  * @dev Calls winningProposal() function to get the index of the winner contained in the proposals array and then\n    //  * @return winnerName_ the name of the winner\n    //  */\n    // function winnerName() public view returns (bytes32 winnerName_) {\n    //     winnerName_ = votaciones[winningProposal()].name;\n    // }\n}\n",
  "sourcePath": "/home/oswill/Escritorio/BACKUP-2022/reactApp/contracts/Urnas.sol",
  "compiler": {
    "name": "solc",
    "version": "0.7.1+commit.f4a555be.Emscripten.clang"
  },
  "schemaVersion": "3.4.5",
  "updatedAt": "2022-04-05T18:24:46.482Z",
  "networkType": "ethereum",
  "devdoc": {
    "details": "Implements voting process along with vote delegation",
    "kind": "dev",
    "methods": {
      "crearVotacion(uint256,bytes32,bytes32[])": {
        "details": "Return the list of options of the porposal.",
        "params": {
          "_candidatos": "name of porposal",
          "_id": "id of porposal",
          "_name": "name of porposal"
        }
      }
    },
    "title": "Urnas",
    "version": 1
  },
  "userdoc": {
    "kind": "user",
    "methods": {},
    "version": 1
  }
}