{
  "contractName": "Urnas",
  "abi": [
    {
      "inputs": [],
      "name": "chairperson",
      "outputs": [
        {
          "internalType": "address",
          "name": "",
          "type": "address"
        }
      ],
      "stateMutability": "view",
      "type": "function",
      "constant": true
    },
    {
      "inputs": [
        {
          "internalType": "uint256",
          "name": "",
          "type": "uint256"
        }
      ],
      "name": "votaciones",
      "outputs": [
        {
          "internalType": "uint256",
          "name": "id",
          "type": "uint256"
        },
        {
          "internalType": "bytes32",
          "name": "name",
          "type": "bytes32"
        },
        {
          "internalType": "bytes",
          "name": "debate",
          "type": "bytes"
        },
        {
          "internalType": "uint256",
          "name": "voteCount",
          "type": "uint256"
        }
      ],
      "stateMutability": "view",
      "type": "function",
      "constant": true
    },
    {
      "inputs": [
        {
          "internalType": "address",
          "name": "",
          "type": "address"
        }
      ],
      "name": "votantes",
      "outputs": [
        {
          "internalType": "uint256",
          "name": "weight",
          "type": "uint256"
        },
        {
          "internalType": "address",
          "name": "addres",
          "type": "address"
        },
        {
          "internalType": "bool",
          "name": "voted",
          "type": "bool"
        }
      ],
      "stateMutability": "view",
      "type": "function",
      "constant": true
    },
    {
      "inputs": [
        {
          "internalType": "uint256",
          "name": "_id",
          "type": "uint256"
        },
        {
          "internalType": "bytes32",
          "name": "_name",
          "type": "bytes32"
        },
        {
          "internalType": "bytes",
          "name": "_debate",
          "type": "bytes"
        },
        {
          "internalType": "bytes32[]",
          "name": "_candidatos",
          "type": "bytes32[]"
        }
      ],
      "name": "crearVotacion",
      "outputs": [],
      "stateMutability": "nonpayable",
      "type": "function"
    },
    {
      "inputs": [
        {
          "internalType": "uint256",
          "name": "_id",
          "type": "uint256"
        }
      ],
      "name": "showVotacion",
      "outputs": [
        {
          "components": [
            {
              "internalType": "uint256",
              "name": "id",
              "type": "uint256"
            },
            {
              "internalType": "bytes32",
              "name": "name",
              "type": "bytes32"
            },
            {
              "internalType": "bytes",
              "name": "debate",
              "type": "bytes"
            },
            {
              "internalType": "bytes32[]",
              "name": "candidatos",
              "type": "bytes32[]"
            },
            {
              "internalType": "uint256",
              "name": "voteCount",
              "type": "uint256"
            }
          ],
          "internalType": "struct Urnas.Votacion",
          "name": "",
          "type": "tuple"
        }
      ],
      "stateMutability": "view",
      "type": "function",
      "constant": true
    },
    {
      "inputs": [],
      "name": "showIds",
      "outputs": [
        {
          "internalType": "uint256[]",
          "name": "id",
          "type": "uint256[]"
        }
      ],
      "stateMutability": "view",
      "type": "function",
      "constant": true
    },
    {
      "inputs": [],
      "name": "showNames",
      "outputs": [
        {
          "internalType": "bytes32[]",
          "name": "name",
          "type": "bytes32[]"
        }
      ],
      "stateMutability": "view",
      "type": "function",
      "constant": true
    },
    {
      "inputs": [
        {
          "internalType": "uint256",
          "name": "proposal",
          "type": "uint256"
        },
        {
          "internalType": "uint256",
          "name": "weigth",
          "type": "uint256"
        }
      ],
      "name": "vote",
      "outputs": [],
      "stateMutability": "nonpayable",
      "type": "function"
    }
  ],
  "bytecode": "0x6080604052600060015534801561001557600080fd5b5061107b806100256000396000f3fe608060405234801561001057600080fd5b50600436106100885760003560e01c80635acf57b51161005b5780635acf57b514610115578063619f3bb414610148578063a92284d014610166578063b384abef1461019857610088565b806301e6e5851461008d5780632e4176cf146100a957806349a5ddd7146100c75780634dc7e587146100f7575b600080fd5b6100a760048036038101906100a291906109c4565b6101b4565b005b6100b1610345565b6040516100be9190610d26565b60405180910390f35b6100e160048036038101906100dc919061099b565b610369565b6040516100ee9190610d85565b60405180910390f35b6100ff6104b6565b60405161010c9190610d41565b60405180910390f35b61012f600480360381019061012a919061099b565b61050e565b60405161013f9493929190610dde565b60405180910390f35b6101506105d6565b60405161015d9190610d63565b60405180910390f35b610180600480360381019061017b9190610972565b61062e565b60405161018f93929190610da7565b60405180910390f35b6101b260048036038101906101ad9190610a57565b610685565b005b83600360008681526020019081526020016000206000018190555082600360008681526020019081526020016000206001018190555081600360008681526020019081526020016000206002019080519060200190610214929190610723565b508060036000868152602001908152602001600020600301908051906020019061023f9291906107a3565b506004849080600181540180825580915050600190039060005260206000200160009091909190915055600583908060018154018082558091505060019003906000526020600020016000909190919091505560066040518060a001604052808681526020018581526020018481526020018381526020016000815250908060018154018082558091505060019003906000526020600020906005020160009091909190915060008201518160000155602082015181600101556040820151816002019080519060200190610315929190610723565b5060608201518160030190805190602001906103329291906107a3565b5060808201518160040155505050505050565b60008054906101000a900473ffffffffffffffffffffffffffffffffffffffff1681565b6103716107f0565b6006828154811061037e57fe5b90600052602060002090600502016040518060a00160405290816000820154815260200160018201548152602001600282018054600181600116156101000203166002900480601f0160208091040260200160405190810160405280929190818152602001828054600181600116156101000203166002900480156104445780601f1061041957610100808354040283529160200191610444565b820191906000526020600020905b81548152906001019060200180831161042757829003601f168201915b505050505081526020016003820180548060200260200160405190810160405280929190818152602001828054801561049c57602002820191906000526020600020905b815481526020019060010190808311610488575b505050505081526020016004820154815250509050919050565b6060600580548060200260200160405190810160405280929190818152602001828054801561050457602002820191906000526020600020905b8154815260200190600101908083116104f0575b5050505050905090565b6003602052806000526040600020600091509050806000015490806001015490806002018054600181600116156101000203166002900480601f0160208091040260200160405190810160405280929190818152602001828054600181600116156101000203166002900480156105c65780601f1061059b576101008083540402835291602001916105c6565b820191906000526020600020905b8154815290600101906020018083116105a957829003601f168201915b5050505050908060040154905084565b6060600480548060200260200160405190810160405280929190818152602001828054801561062457602002820191906000526020600020905b815481526020019060010190808311610610575b5050505050905090565b60026020528060005260406000206000915090508060000154908060010160009054906101000a900473ffffffffffffffffffffffffffffffffffffffff16908060010160149054906101000a900460ff16905083565b6000600260003373ffffffffffffffffffffffffffffffffffffffff1673ffffffffffffffffffffffffffffffffffffffff168152602001908152602001600020905060018160010160146101000a81548160ff02191690831515021790555081816000018190555080600001546006848154811061070057fe5b906000526020600020906005020160040160008282540192505081905550505050565b828054600181600116156101000203166002900490600052602060002090601f016020900481019282601f1061076457805160ff1916838001178555610792565b82800160010185558215610792579182015b82811115610791578251825591602001919060010190610776565b5b50905061079f9190610822565b5090565b8280548282559060005260206000209081019282156107df579160200282015b828111156107de5782518255916020019190600101906107c3565b5b5090506107ec919061083f565b5090565b6040518060a0016040528060008152602001600080191681526020016060815260200160608152602001600081525090565b5b8082111561083b576000816000905550600101610823565b5090565b5b80821115610858576000816000905550600101610840565b5090565b60008135905061086b81611000565b92915050565b600082601f83011261088257600080fd5b813561089561089082610e57565b610e2a565b915081818352602084019350602081019050838560208402820111156108ba57600080fd5b60005b838110156108ea57816108d088826108f4565b8452602084019350602083019250506001810190506108bd565b5050505092915050565b60008135905061090381611017565b92915050565b600082601f83011261091a57600080fd5b813561092d61092882610e7f565b610e2a565b9150808252602083016020830185838301111561094957600080fd5b610954838284610fad565b50505092915050565b60008135905061096c8161102e565b92915050565b60006020828403121561098457600080fd5b60006109928482850161085c565b91505092915050565b6000602082840312156109ad57600080fd5b60006109bb8482850161095d565b91505092915050565b600080600080608085870312156109da57600080fd5b60006109e88782880161095d565b94505060206109f9878288016108f4565b935050604085013567ffffffffffffffff811115610a1657600080fd5b610a2287828801610909565b925050606085013567ffffffffffffffff811115610a3f57600080fd5b610a4b87828801610871565b91505092959194509250565b60008060408385031215610a6a57600080fd5b6000610a788582860161095d565b9250506020610a898582860161095d565b9150509250929050565b6000610a9f8383610bfb565b60208301905092915050565b6000610ab78383610d08565b60208301905092915050565b610acc81610f5b565b82525050565b6000610add82610ecb565b610ae78185610f06565b9350610af283610eab565b8060005b83811015610b23578151610b0a8882610a93565b9750610b1583610eec565b925050600181019050610af6565b5085935050505092915050565b6000610b3b82610ecb565b610b458185610f17565b9350610b5083610eab565b8060005b83811015610b81578151610b688882610a93565b9750610b7383610eec565b925050600181019050610b54565b5085935050505092915050565b6000610b9982610ed6565b610ba38185610f28565b9350610bae83610ebb565b8060005b83811015610bdf578151610bc68882610aab565b9750610bd183610ef9565b925050600181019050610bb2565b5085935050505092915050565b610bf581610f6d565b82525050565b610c0481610f79565b82525050565b610c1381610f79565b82525050565b6000610c2482610ee1565b610c2e8185610f39565b9350610c3e818560208601610fbc565b610c4781610fef565b840191505092915050565b6000610c5d82610ee1565b610c678185610f4a565b9350610c77818560208601610fbc565b610c8081610fef565b840191505092915050565b600060a083016000830151610ca36000860182610d08565b506020830151610cb66020860182610bfb565b5060408301518482036040860152610cce8282610c19565b91505060608301518482036060860152610ce88282610ad2565b9150506080830151610cfd6080860182610d08565b508091505092915050565b610d1181610fa3565b82525050565b610d2081610fa3565b82525050565b6000602082019050610d3b6000830184610ac3565b92915050565b60006020820190508181036000830152610d5b8184610b30565b905092915050565b60006020820190508181036000830152610d7d8184610b8e565b905092915050565b60006020820190508181036000830152610d9f8184610c8b565b905092915050565b6000606082019050610dbc6000830186610d17565b610dc96020830185610ac3565b610dd66040830184610bec565b949350505050565b6000608082019050610df36000830187610d17565b610e006020830186610c0a565b8181036040830152610e128185610c52565b9050610e216060830184610d17565b95945050505050565b6000604051905081810181811067ffffffffffffffff82111715610e4d57600080fd5b8060405250919050565b600067ffffffffffffffff821115610e6e57600080fd5b602082029050602081019050919050565b600067ffffffffffffffff821115610e9657600080fd5b601f19601f8301169050602081019050919050565b6000819050602082019050919050565b6000819050602082019050919050565b600081519050919050565b600081519050919050565b600081519050919050565b6000602082019050919050565b6000602082019050919050565b600082825260208201905092915050565b600082825260208201905092915050565b600082825260208201905092915050565b600082825260208201905092915050565b600082825260208201905092915050565b6000610f6682610f83565b9050919050565b60008115159050919050565b6000819050919050565b600073ffffffffffffffffffffffffffffffffffffffff82169050919050565b6000819050919050565b82818337600083830152505050565b60005b83811015610fda578082015181840152602081019050610fbf565b83811115610fe9576000848401525b50505050565b6000601f19601f8301169050919050565b61100981610f5b565b811461101457600080fd5b50565b61102081610f79565b811461102b57600080fd5b50565b61103781610fa3565b811461104257600080fd5b5056fea264697066735822122078e29d81b2a496d6c7e42e25b240284f8830c90ed8162562b37202a63c0b610c64736f6c63430007010033",
  "immutableReferences": {},
  "source": "// SPDX-License-Identifier: GPL-3.0\npragma solidity >=0.7.0 <0.9.0;\npragma experimental ABIEncoderV2;\n\n/**\n * @title Urnas\n * @dev Implements voting process along with vote delegation\n */\ncontract Urnas {\n    struct Votante {\n        uint256 weight; // vote value\n        address addres; // adress wallet\n        bool voted; // id de votacion. if true, that person already voted\n    }\n\n    struct Votacion {\n        // If you can limit the length to a certain number of bytes,\n        // always use one of bytes1 to bytes32 because they are much cheaper\n        uint256 id; // hash\n        bytes32 name; // short name (up to 32 bytes)\n        bytes debate;\n        bytes32[] candidatos; // Array de int\n        uint256 voteCount;\n    }\n\n    address public chairperson;\n    uint256 randNonce = 0;\n    mapping(address => Votante) public votantes;\n    // mapping(address => Votacion) public votaciones;\n    mapping(uint256 => Votacion) public votaciones;\n    uint256[] ids;\n    bytes32[] names;\n    Votacion[] proposals;\n\n    // Votacion[] proposals;\n\n    // Votacion[] public votaciones;\n\n    /**\n     * @dev Return the list of options of the porposal.\n     * @param _id id of porposal\n     * @param _name name of porposal\n     * @param _candidatos name of porposal\n     */\n    function crearVotacion(\n        uint256 _id,\n        bytes32 _name,\n        bytes memory _debate,\n        bytes32[] memory _candidatos\n    ) public {\n        votaciones[_id].id = _id;\n        votaciones[_id].name = _name;\n        votaciones[_id].debate = _debate;\n        votaciones[_id].candidatos = _candidatos;\n        ids.push(_id);\n        names.push(_name);\n        proposals.push(\n            Votacion({\n                id: _id,\n                name: _name,\n                debate: _debate,\n                candidatos: _candidatos,\n                voteCount: 0\n            })\n        );\n\n        // votantes[chairperson].weight = 1;\n        // 'Proposal({...})' creates a temporary\n        // Proposal object and 'proposals.push(...)'\n        // appends it to the end of 'proposals'.\n    }\n\n    // function showVotacion(uint256 _id) public view returns (Votacion memory) {\n    //     return votaciones[_id];\n    // }\n\n    function showVotacion(uint256 _id) public view returns (Votacion memory) {\n        return proposals[_id];\n    }\n\n    // function showVotaciones() public view returns (Votacion[] memory) {\n    //     return votaciones;\n    // }\n\n    function showIds() public view returns (uint256[] memory id) {\n        return ids;\n    }\n\n    function showNames() public view returns (bytes32[] memory name) {\n        return names;\n    }\n\n    function vote(uint256 proposal, uint256 weigth) public {\n        Votante storage sender = votantes[msg.sender];\n        sender.voted = true;\n        sender.weight = weigth;\n\n        // If 'proposal' is out of the range of the array,\n        // this will throw automatically and revert all\n        // changes.\n        proposals[proposal].voteCount += sender.weight;\n    }\n\n    // function getData()\n    //     external\n    //     view\n    //     returns (bytes32 name, bytes32[] memory candidatos)\n    // {\n    //     for (uint256 i = 0; i < votaciones.length;  {\n    //         Votacion memory votacion = votaciones[i];\n    //         votacion.name = name;\n    //         votacion.candidatos = candidatos;\n\n    //         return (name, candidatos);\n    //     }\n    // }\n\n    // /**\n    //  * @dev Give 'voter' the right to vote on this ballot. May only be called by 'chairperson'.\n    //  * @param candidatos data de la votacion\n    //  */\n    // function getVotacion(bytes32 votacionHash)\n    //     public\n    //     view\n    //     returns (bytes32[] memory candidatos)\n    // {\n    //     for (uint256 i = 0; i < votaciones.length; i++) {\n    //         if (votaciones[i].id == votacionHash) {\n    //             Votacion storage sender = votaciones[i];\n\n    //             candidatos = sender.candidatos;\n    //         }\n    //     }\n\n    //     return (candidatos);\n    // }\n\n    // /**\n    //  * @dev Give 'voter' the right to vote on this ballot. May only be called by 'chairperson'.\n    //  * @param votante address of voter\n    //  */\n    // function giveRightToVote(address votante) public {\n    //     require(\n    //         msg.sender == chairperson,\n    //         \"Only chairperson can give right to vote.\"\n    //     );\n    //     require(!votantes[votante].voted, \"The voter already voted.\");\n    //     require(votantes[votante].weight == 0);\n    //     votantes[votante].weight = 1;\n    // }\n\n    /**\n     * @dev Give your vote (including votes delegated to you) to proposal 'proposals[proposal].name'.\n     * @param votacion index of proposal in the proposals array\n     */\n\n    // function vote(bytes32[] calldata votacion, uint256 weight) public {\n    //     Votante storage sender = votantes[msg.sender];\n    //     require(sender.weight != 0, \"No tienes permiso para votar.\");\n\n    //     sender.Votacion[1] = votacion;\n    //     sender.weight = weight;\n    //     // If 'proposal' is out of the range of the array,\n    //     // this will throw automatically and revert all\n    //     // changes.\n    //     votaciones[votacion].voteCount += sender.weight;\n    // }\n\n    // /**\n    //  * @dev Computes the winning proposal taking all previous votes into account.\n    //  * @return winningProposal_ index of winning proposal in the proposals array\n    //  */\n    // function winningProposal() public view returns (uint256 winningProposal_) {\n    //     uint256 winningVoteCount = 0;\n    //     for (uint256 v = 0; v < votaciones.length; v++) {\n    //         if (votaciones[v].voteCount > winningVoteCount) {\n    //             winningVoteCount = votaciones[v].voteCount;\n    //             winningProposal_ = v;\n    //         }\n    //     }\n    // }\n\n    // /**\n    //  * @dev Calls winningProposal() function to get the index of the winner contained in the proposals array and then\n    //  * @return winnerName_ the name of the winner\n    //  */\n    // function winnerName() public view returns (bytes32 winnerName_) {\n    //     winnerName_ = votaciones[winningProposal()].name;\n    // }\n}\n",
  "sourcePath": "/home/oswill/Escritorio/BACKUP-2022/reactApp/contracts/Urnas.sol",
  "compiler": {
    "name": "solc",
    "version": "0.7.1+commit.f4a555be.Emscripten.clang"
  },
  "schemaVersion": "3.4.5",
  "updatedAt": "2022-05-15T11:11:12.917Z",
  "networkType": "ethereum",
  "devdoc": {
    "details": "Implements voting process along with vote delegation",
    "kind": "dev",
    "methods": {
      "crearVotacion(uint256,bytes32,bytes,bytes32[])": {
        "details": "Return the list of options of the porposal.",
        "params": {
          "_candidatos": "name of porposal",
          "_id": "id of porposal",
          "_name": "name of porposal"
        }
      }
    },
    "title": "Urnas",
    "version": 1
  },
  "userdoc": {
    "kind": "user",
    "methods": {},
    "version": 1
  }
}