{
  "contractName": "Urnas",
  "abi": [
    {
      "inputs": [],
      "name": "chairperson",
      "outputs": [
        {
          "internalType": "address",
          "name": "",
          "type": "address"
        }
      ],
      "stateMutability": "view",
      "type": "function",
      "constant": true
    },
    {
      "inputs": [
        {
          "internalType": "uint256",
          "name": "",
          "type": "uint256"
        }
      ],
      "name": "urnas",
      "outputs": [
        {
          "internalType": "uint256",
          "name": "id",
          "type": "uint256"
        },
        {
          "internalType": "uint256",
          "name": "si",
          "type": "uint256"
        },
        {
          "internalType": "uint256",
          "name": "no",
          "type": "uint256"
        },
        {
          "internalType": "uint256",
          "name": "abstencion",
          "type": "uint256"
        }
      ],
      "stateMutability": "view",
      "type": "function",
      "constant": true
    },
    {
      "inputs": [
        {
          "internalType": "uint256",
          "name": "",
          "type": "uint256"
        }
      ],
      "name": "votaciones",
      "outputs": [
        {
          "internalType": "uint256",
          "name": "id",
          "type": "uint256"
        },
        {
          "internalType": "bytes32",
          "name": "name",
          "type": "bytes32"
        },
        {
          "internalType": "bytes",
          "name": "debate",
          "type": "bytes"
        },
        {
          "internalType": "uint256",
          "name": "voteCount",
          "type": "uint256"
        }
      ],
      "stateMutability": "view",
      "type": "function",
      "constant": true
    },
    {
      "inputs": [
        {
          "internalType": "address",
          "name": "",
          "type": "address"
        }
      ],
      "name": "votantes",
      "outputs": [
        {
          "internalType": "uint256",
          "name": "weight",
          "type": "uint256"
        },
        {
          "internalType": "address",
          "name": "addres",
          "type": "address"
        },
        {
          "internalType": "bool",
          "name": "voted",
          "type": "bool"
        }
      ],
      "stateMutability": "view",
      "type": "function",
      "constant": true
    },
    {
      "inputs": [
        {
          "internalType": "uint256",
          "name": "_id",
          "type": "uint256"
        },
        {
          "internalType": "bytes32",
          "name": "_name",
          "type": "bytes32"
        },
        {
          "internalType": "bytes",
          "name": "_debate",
          "type": "bytes"
        },
        {
          "internalType": "bytes32[]",
          "name": "_candidatos",
          "type": "bytes32[]"
        }
      ],
      "name": "crearVotacion",
      "outputs": [],
      "stateMutability": "nonpayable",
      "type": "function"
    },
    {
      "inputs": [
        {
          "internalType": "uint256",
          "name": "_id",
          "type": "uint256"
        }
      ],
      "name": "showVotacion",
      "outputs": [
        {
          "components": [
            {
              "internalType": "uint256",
              "name": "id",
              "type": "uint256"
            },
            {
              "internalType": "bytes32",
              "name": "name",
              "type": "bytes32"
            },
            {
              "internalType": "bytes",
              "name": "debate",
              "type": "bytes"
            },
            {
              "internalType": "bytes32[]",
              "name": "candidatos",
              "type": "bytes32[]"
            },
            {
              "internalType": "uint256",
              "name": "voteCount",
              "type": "uint256"
            }
          ],
          "internalType": "struct Urnas.Votacion",
          "name": "",
          "type": "tuple"
        }
      ],
      "stateMutability": "view",
      "type": "function",
      "constant": true
    },
    {
      "inputs": [],
      "name": "showIds",
      "outputs": [
        {
          "internalType": "uint256[]",
          "name": "id",
          "type": "uint256[]"
        }
      ],
      "stateMutability": "view",
      "type": "function",
      "constant": true
    },
    {
      "inputs": [],
      "name": "showNames",
      "outputs": [
        {
          "internalType": "bytes32[]",
          "name": "name",
          "type": "bytes32[]"
        }
      ],
      "stateMutability": "view",
      "type": "function",
      "constant": true
    },
    {
      "inputs": [
        {
          "internalType": "uint256",
          "name": "proposal",
          "type": "uint256"
        },
        {
          "internalType": "uint256",
          "name": "weigth",
          "type": "uint256"
        }
      ],
      "name": "vote",
      "outputs": [],
      "stateMutability": "nonpayable",
      "type": "function"
    },
    {
      "inputs": [
        {
          "internalType": "uint256",
          "name": "proposal",
          "type": "uint256"
        }
      ],
      "name": "getVotes",
      "outputs": [
        {
          "components": [
            {
              "internalType": "uint256",
              "name": "id",
              "type": "uint256"
            },
            {
              "internalType": "uint256",
              "name": "si",
              "type": "uint256"
            },
            {
              "internalType": "uint256",
              "name": "no",
              "type": "uint256"
            },
            {
              "internalType": "uint256",
              "name": "abstencion",
              "type": "uint256"
            },
            {
              "internalType": "address[]",
              "name": "addresses",
              "type": "address[]"
            }
          ],
          "internalType": "struct Urnas.Urna",
          "name": "results_",
          "type": "tuple"
        }
      ],
      "stateMutability": "view",
      "type": "function",
      "constant": true
    },
    {
      "inputs": [],
      "name": "winningProposal",
      "outputs": [
        {
          "internalType": "uint256",
          "name": "winningProposal_",
          "type": "uint256"
        }
      ],
      "stateMutability": "view",
      "type": "function",
      "constant": true
    }
  ],
  "bytecode": "0x6080604052600060015534801561001557600080fd5b50611650806100256000396000f3fe608060405234801561001057600080fd5b50600436106100a95760003560e01c80635acf57b5116100715780635acf57b514610169578063609ff1bd1461019c578063619f3bb4146101ba578063a92284d0146101d8578063b384abef1461020a578063ff98109914610226576100a9565b806301e6e585146100ae5780632e4176cf146100ca57806349a5ddd7146100e85780634dc7e5871461011857806359f3dba114610136575b600080fd5b6100c860048036038101906100c39190610de3565b610256565b005b6100d26103e7565b6040516100df9190611240565b60405180910390f35b61010260048036038101906100fd9190610dba565b61040b565b60405161010f91906112c1565b60405180910390f35b610120610558565b60405161012d919061125b565b60405180910390f35b610150600480360381019061014b9190610dba565b6105b0565b6040516101609493929190611381565b60405180910390f35b610183600480360381019061017e9190610dba565b6105e0565b6040516101939493929190611335565b60405180910390f35b6101a46106a8565b6040516101b191906112e3565b60405180910390f35b6101c261070c565b6040516101cf919061127d565b60405180910390f35b6101f260048036038101906101ed9190610d91565b610764565b604051610201939291906112fe565b60405180910390f35b610224600480360381019061021f9190610e76565b6107bb565b005b610240600480360381019061023b9190610dba565b610a30565b60405161024d919061129f565b60405180910390f35b836004600086815260200190815260200160002060000181905550826004600086815260200190815260200160002060010181905550816004600086815260200190815260200160002060020190805190602001906102b6929190610b13565b50806004600086815260200190815260200160002060030190805190602001906102e1929190610b93565b506005849080600181540180825580915050600190039060005260206000200160009091909190915055600683908060018154018082558091505060019003906000526020600020016000909190919091505560076040518060a0016040528086815260200185815260200184815260200183815260200160008152509080600181540180825580915050600190039060005260206000209060050201600090919091909150600082015181600001556020820151816001015560408201518160020190805190602001906103b7929190610b13565b5060608201518160030190805190602001906103d4929190610b93565b5060808201518160040155505050505050565b60008054906101000a900473ffffffffffffffffffffffffffffffffffffffff1681565b610413610be0565b6007828154811061042057fe5b90600052602060002090600502016040518060a00160405290816000820154815260200160018201548152602001600282018054600181600116156101000203166002900480601f0160208091040260200160405190810160405280929190818152602001828054600181600116156101000203166002900480156104e65780601f106104bb576101008083540402835291602001916104e6565b820191906000526020600020905b8154815290600101906020018083116104c957829003601f168201915b505050505081526020016003820180548060200260200160405190810160405280929190818152602001828054801561053e57602002820191906000526020600020905b81548152602001906001019080831161052a575b505050505081526020016004820154815250509050919050565b606060068054806020026020016040519081016040528092919081815260200182805480156105a657602002820191906000526020600020905b815481526020019060010190808311610592575b5050505050905090565b60026020528060005260406000206000915090508060000154908060010154908060020154908060030154905084565b6004602052806000526040600020600091509050806000015490806001015490806002018054600181600116156101000203166002900480601f0160208091040260200160405190810160405280929190818152602001828054600181600116156101000203166002900480156106985780601f1061066d57610100808354040283529160200191610698565b820191906000526020600020905b81548152906001019060200180831161067b57829003601f168201915b5050505050908060040154905084565b6000806000905060005b6007805490508110156107075781600460008381526020019081526020016000206004015411156106fa57600460008281526020019081526020016000206004015491508092505b80806001019150506106b2565b505090565b6060600580548060200260200160405190810160405280929190818152602001828054801561075a57602002820191906000526020600020905b815481526020019060010190808311610746575b5050505050905090565b60036020528060005260406000206000915090508060000154908060010160009054906101000a900473ffffffffffffffffffffffffffffffffffffffff16908060010160149054906101000a900460ff16905083565b6000600360003373ffffffffffffffffffffffffffffffffffffffff1673ffffffffffffffffffffffffffffffffffffffff168152602001908152602001600020905060018160010160146101000a81548160ff02191690831515021790555081816000018190555082600260008581526020019081526020016000206000018190555060008214156108bc576001600260008581526020019081526020016000206001016000828254019250508190555060006002600085815260200190815260200160002060020160008282540192505081905550600060026000858152602001908152602001600020600301600082825401925050819055506109b4565b6001821415610939576000600260008581526020019081526020016000206001016000828254019250508190555060016002600085815260200190815260200160002060020160008282540192505081905550600060026000858152602001908152602001600020600301600082825401925050819055506109b3565b60028214156109b2576000600260008581526020019081526020016000206001016000828254019250508190555060006002600085815260200190815260200160002060020160008282540192505081905550600160026000858152602001908152602001600020600301600082825401925050819055505b5b5b60026000848152602001908152602001600020600401339080600181540180825580915050600190039060005260206000200160009091909190916101000a81548173ffffffffffffffffffffffffffffffffffffffff021916908373ffffffffffffffffffffffffffffffffffffffff160217905550505050565b610a38610c12565b600260008381526020019081526020016000206040518060a00160405290816000820154815260200160018201548152602001600282015481526020016003820154815260200160048201805480602002602001604051908101604052809291908181526020018280548015610b0357602002820191906000526020600020905b8160009054906101000a900473ffffffffffffffffffffffffffffffffffffffff1673ffffffffffffffffffffffffffffffffffffffff1681526020019060010190808311610ab9575b5050505050815250509050919050565b828054600181600116156101000203166002900490600052602060002090601f016020900481019282601f10610b5457805160ff1916838001178555610b82565b82800160010185558215610b82579182015b82811115610b81578251825591602001919060010190610b66565b5b509050610b8f9190610c41565b5090565b828054828255906000526020600020908101928215610bcf579160200282015b82811115610bce578251825591602001919060010190610bb3565b5b509050610bdc9190610c5e565b5090565b6040518060a0016040528060008152602001600080191681526020016060815260200160608152602001600081525090565b6040518060a0016040528060008152602001600081526020016000815260200160008152602001606081525090565b5b80821115610c5a576000816000905550600101610c42565b5090565b5b80821115610c77576000816000905550600101610c5f565b5090565b600081359050610c8a816115d5565b92915050565b600082601f830112610ca157600080fd5b8135610cb4610caf826113f3565b6113c6565b91508181835260208401935060208101905083856020840282011115610cd957600080fd5b60005b83811015610d095781610cef8882610d13565b845260208401935060208301925050600181019050610cdc565b5050505092915050565b600081359050610d22816115ec565b92915050565b600082601f830112610d3957600080fd5b8135610d4c610d478261141b565b6113c6565b91508082526020830160208301858383011115610d6857600080fd5b610d73838284611582565b50505092915050565b600081359050610d8b81611603565b92915050565b600060208284031215610da357600080fd5b6000610db184828501610c7b565b91505092915050565b600060208284031215610dcc57600080fd5b6000610dda84828501610d7c565b91505092915050565b60008060008060808587031215610df957600080fd5b6000610e0787828801610d7c565b9450506020610e1887828801610d13565b935050604085013567ffffffffffffffff811115610e3557600080fd5b610e4187828801610d28565b925050606085013567ffffffffffffffff811115610e5e57600080fd5b610e6a87828801610c90565b91505092959194509250565b60008060408385031215610e8957600080fd5b6000610e9785828601610d7c565b9250506020610ea885828601610d7c565b9150509250929050565b6000610ebe8383610efa565b60208301905092915050565b6000610ed6838361109f565b60208301905092915050565b6000610eee8383611222565b60208301905092915050565b610f0381611530565b82525050565b610f1281611530565b82525050565b6000610f2382611477565b610f2d81856114ca565b9350610f3883611447565b8060005b83811015610f69578151610f508882610eb2565b9750610f5b836114a3565b925050600181019050610f3c565b5085935050505092915050565b6000610f8182611482565b610f8b81856114db565b9350610f9683611457565b8060005b83811015610fc7578151610fae8882610eca565b9750610fb9836114b0565b925050600181019050610f9a565b5085935050505092915050565b6000610fdf82611482565b610fe981856114ec565b9350610ff483611457565b8060005b8381101561102557815161100c8882610eca565b9750611017836114b0565b925050600181019050610ff8565b5085935050505092915050565b600061103d8261148d565b61104781856114fd565b935061105283611467565b8060005b8381101561108357815161106a8882610ee2565b9750611075836114bd565b925050600181019050611056565b5085935050505092915050565b61109981611542565b82525050565b6110a88161154e565b82525050565b6110b78161154e565b82525050565b60006110c882611498565b6110d2818561150e565b93506110e2818560208601611591565b6110eb816115c4565b840191505092915050565b600061110182611498565b61110b818561151f565b935061111b818560208601611591565b611124816115c4565b840191505092915050565b600060a0830160008301516111476000860182611222565b50602083015161115a6020860182611222565b50604083015161116d6040860182611222565b5060608301516111806060860182611222565b50608083015184820360808601526111988282610f18565b9150508091505092915050565b600060a0830160008301516111bd6000860182611222565b5060208301516111d0602086018261109f565b50604083015184820360408601526111e882826110bd565b915050606083015184820360608601526112028282610f76565b91505060808301516112176080860182611222565b508091505092915050565b61122b81611578565b82525050565b61123a81611578565b82525050565b60006020820190506112556000830184610f09565b92915050565b600060208201905081810360008301526112758184610fd4565b905092915050565b600060208201905081810360008301526112978184611032565b905092915050565b600060208201905081810360008301526112b9818461112f565b905092915050565b600060208201905081810360008301526112db81846111a5565b905092915050565b60006020820190506112f86000830184611231565b92915050565b60006060820190506113136000830186611231565b6113206020830185610f09565b61132d6040830184611090565b949350505050565b600060808201905061134a6000830187611231565b61135760208301866110ae565b818103604083015261136981856110f6565b90506113786060830184611231565b95945050505050565b60006080820190506113966000830187611231565b6113a36020830186611231565b6113b06040830185611231565b6113bd6060830184611231565b95945050505050565b6000604051905081810181811067ffffffffffffffff821117156113e957600080fd5b8060405250919050565b600067ffffffffffffffff82111561140a57600080fd5b602082029050602081019050919050565b600067ffffffffffffffff82111561143257600080fd5b601f19601f8301169050602081019050919050565b6000819050602082019050919050565b6000819050602082019050919050565b6000819050602082019050919050565b600081519050919050565b600081519050919050565b600081519050919050565b600081519050919050565b6000602082019050919050565b6000602082019050919050565b6000602082019050919050565b600082825260208201905092915050565b600082825260208201905092915050565b600082825260208201905092915050565b600082825260208201905092915050565b600082825260208201905092915050565b600082825260208201905092915050565b600061153b82611558565b9050919050565b60008115159050919050565b6000819050919050565b600073ffffffffffffffffffffffffffffffffffffffff82169050919050565b6000819050919050565b82818337600083830152505050565b60005b838110156115af578082015181840152602081019050611594565b838111156115be576000848401525b50505050565b6000601f19601f8301169050919050565b6115de81611530565b81146115e957600080fd5b50565b6115f58161154e565b811461160057600080fd5b50565b61160c81611578565b811461161757600080fd5b5056fea26469706673582212205aefbdef3662a2bceaf16254e39f5355842738271b701558f5ef368eba43597464736f6c63430007010033",
  "immutableReferences": {},
  "source": "// SPDX-License-Identifier: GPL-3.0\npragma solidity >=0.7.0 <0.9.0;\npragma experimental ABIEncoderV2;\n\n/**\n * @title Urnas\n * @dev Implements voting process along with vote delegation\n */\ncontract Urnas {\n    struct Votante {\n        uint256 weight; // vote value\n        address addres; // adress wallet\n        bool voted; // id de votacion. if true, that person already voted\n    }\n\n    struct Votacion {\n        // If you can limit the length to a certain number of bytes,\n        // always use one of bytes1 to bytes32 because they are much cheaper\n        uint256 id; // hash\n        bytes32 name; // short name (up to 32 bytes)\n        bytes debate;\n        bytes32[] candidatos; // Array de int\n        uint256 voteCount;\n    }\n\n    struct Urna {\n        uint256 id; // id votacion\n        uint256 si;\n        uint256 no;\n        uint256 abstencion;\n        address[] addresses;\n    }\n\n    address public chairperson;\n    uint256 randNonce = 0;\n    mapping(uint256 => Urna) public urnas;\n    mapping(address => Votante) public votantes;\n    // mapping(address => Votacion) public votaciones;\n    mapping(uint256 => Votacion) public votaciones;\n    uint256[] ids;\n    bytes32[] names;\n    Votacion[] proposals;\n    Urna[] urna;\n\n    // Votacion[] proposals;\n\n    // Votacion[] public votaciones;\n\n    /**\n     * @dev Return the list of options of the porposal.\n     * @param _id id of porposal\n     * @param _name name of porposal\n     * @param _candidatos name of porposal\n     */\n    function crearVotacion(\n        uint256 _id,\n        bytes32 _name,\n        bytes memory _debate,\n        bytes32[] memory _candidatos\n    ) public {\n        votaciones[_id].id = _id;\n        votaciones[_id].name = _name;\n        votaciones[_id].debate = _debate;\n        votaciones[_id].candidatos = _candidatos;\n        ids.push(_id);\n        names.push(_name);\n        proposals.push(\n            Votacion({\n                id: _id,\n                name: _name,\n                debate: _debate,\n                candidatos: _candidatos,\n                voteCount: 0\n            })\n        );\n\n        // votantes[chairperson].weight = 1;\n        // 'Proposal({...})' creates a temporary\n        // Proposal object and 'proposals.push(...)'\n        // appends it to the end of 'proposals'.\n    }\n\n    // function showVotacion(uint256 _id) public view returns (Votacion memory) {\n    //     return votaciones[_id];\n    // }\n\n    function showVotacion(uint256 _id) public view returns (Votacion memory) {\n        return proposals[_id];\n    }\n\n    // function showVotaciones() public view returns (Votacion[] memory) {\n    //     return votaciones;\n    // }\n\n    function showIds() public view returns (uint256[] memory id) {\n        return ids;\n    }\n\n    function showNames() public view returns (bytes32[] memory name) {\n        return names;\n    }\n\n    function vote(uint256 proposal, uint256 weigth) public {\n        Votante storage sender = votantes[msg.sender];\n        sender.voted = true;\n        sender.weight = weigth;\n        urnas[proposal].id = proposal;\n        if (weigth == 0) {\n            urnas[proposal].si += 1;\n            urnas[proposal].no += 0;\n            urnas[proposal].abstencion += 0;\n        } else if (weigth == 1) {\n            urnas[proposal].si += 0;\n            urnas[proposal].no += 1;\n            urnas[proposal].abstencion += 0;\n        } else if (weigth == 2) {\n            urnas[proposal].si += 0;\n            urnas[proposal].no += 0;\n            urnas[proposal].abstencion += 1;\n        }\n        urnas[proposal].addresses.push(msg.sender);\n        // If 'proposal' is out of the range of the array,\n        // this will throw automatically and revert all\n        // changes.\n    }\n\n    function getVotes(uint256 proposal)\n        public\n        view\n        returns (Urna memory results_)\n    {\n        return urnas[proposal];\n    }\n\n    function winningProposal() public view returns (uint256 winningProposal_) {\n        uint256 winningVoteCount = 0;\n        for (uint256 v = 0; v < proposals.length; v++) {\n            if (votaciones[v].voteCount > winningVoteCount) {\n                winningVoteCount = votaciones[v].voteCount;\n                winningProposal_ = v;\n            }\n        }\n    }\n\n    // function getData()\n    //     external\n    //     view\n    //     returns (bytes32 name, bytes32[] memory candidatos)\n    // {\n    //     for (uint256 i = 0; i < votaciones.length;  {\n    //         Votacion memory votacion = votaciones[i];\n    //         votacion.name = name;\n    //         votacion.candidatos = candidatos;\n\n    //         return (name, candidatos);\n    //     }\n    // }\n\n    // /**\n    //  * @dev Give 'voter' the right to vote on this ballot. May only be called by 'chairperson'.\n    //  * @param candidatos data de la votacion\n    //  */\n    // function getVotacion(bytes32 votacionHash)\n    //     public\n    //     view\n    //     returns (bytes32[] memory candidatos)\n    // {\n    //     for (uint256 i = 0; i < votaciones.length; i++) {\n    //         if (votaciones[i].id == votacionHash) {\n    //             Votacion storage sender = votaciones[i];\n\n    //             candidatos = sender.candidatos;\n    //         }\n    //     }\n\n    //     return (candidatos);\n    // }\n\n    // /**\n    //  * @dev Give 'voter' the right to vote on this ballot. May only be called by 'chairperson'.\n    //  * @param votante address of voter\n    //  */\n    // function giveRightToVote(address votante) public {\n    //     require(\n    //         msg.sender == chairperson,\n    //         \"Only chairperson can give right to vote.\"\n    //     );\n    //     require(!votantes[votante].voted, \"The voter already voted.\");\n    //     require(votantes[votante].weight == 0);\n    //     votantes[votante].weight = 1;\n    // }\n\n    /**\n     * @dev Give your vote (including votes delegated to you) to proposal 'proposals[proposal].name'.\n     * @param votacion index of proposal in the proposals array\n     */\n\n    // function vote(bytes32[] calldata votacion, uint256 weight) public {\n    //     Votante storage sender = votantes[msg.sender];\n    //     require(sender.weight != 0, \"No tienes permiso para votar.\");\n\n    //     sender.Votacion[1] = votacion;\n    //     sender.weight = weight;\n    //     // If 'proposal' is out of the range of the array,\n    //     // this will throw automatically and revert all\n    //     // changes.\n    //     votaciones[votacion].voteCount += sender.weight;\n    // }\n\n    // /**\n    //  * @dev Computes the winning proposal taking all previous votes into account.\n    //  * @return winningProposal_ index of winning proposal in the proposals array\n    //  */\n\n    // /**\n    //  * @dev Calls winningProposal() function to get the index of the winner contained in the proposals array and then\n    //  * @return winnerName_ the name of the winner\n    //  */\n    // function winnerName() public view returns (bytes32 winnerName_) {\n    //     winnerName_ = votaciones[winningProposal()].name;\n    // }\n}\n",
  "sourcePath": "/home/oswill/Escritorio/BACKUP-2022/DAM_M13_ACT03_OscarSachez/contracts/Urnas.sol",
  "compiler": {
    "name": "solc",
    "version": "0.7.1+commit.f4a555be.Emscripten.clang"
  },
  "schemaVersion": "3.4.5",
  "updatedAt": "2022-06-02T16:40:17.750Z",
  "networkType": "ethereum",
  "devdoc": {
    "details": "Implements voting process along with vote delegation",
    "kind": "dev",
    "methods": {
      "crearVotacion(uint256,bytes32,bytes,bytes32[])": {
        "details": "Return the list of options of the porposal.",
        "params": {
          "_candidatos": "name of porposal",
          "_id": "id of porposal",
          "_name": "name of porposal"
        }
      }
    },
    "title": "Urnas",
    "version": 1
  },
  "userdoc": {
    "kind": "user",
    "methods": {},
    "version": 1
  }
}