{
  "contractName": "Urnas",
  "abi": [
    {
      "inputs": [],
      "name": "chairperson",
      "outputs": [
        {
          "internalType": "address",
          "name": "",
          "type": "address"
        }
      ],
      "stateMutability": "view",
      "type": "function"
    },
    {
      "inputs": [
        {
          "internalType": "uint256",
          "name": "",
          "type": "uint256"
        }
      ],
      "name": "votaciones",
      "outputs": [
        {
          "internalType": "bytes32",
          "name": "id",
          "type": "bytes32"
        },
        {
          "internalType": "bytes32",
          "name": "name",
          "type": "bytes32"
        }
      ],
      "stateMutability": "view",
      "type": "function"
    },
    {
      "inputs": [
        {
          "internalType": "address",
          "name": "",
          "type": "address"
        }
      ],
      "name": "votantes",
      "outputs": [
        {
          "internalType": "address",
          "name": "addres",
          "type": "address"
        },
        {
          "internalType": "uint256",
          "name": "weight",
          "type": "uint256"
        }
      ],
      "stateMutability": "view",
      "type": "function"
    },
    {
      "inputs": [
        {
          "internalType": "bytes32",
          "name": "name",
          "type": "bytes32"
        },
        {
          "internalType": "bytes32[]",
          "name": "candidatos",
          "type": "bytes32[]"
        }
      ],
      "name": "crearVotacion",
      "outputs": [],
      "stateMutability": "nonpayable",
      "type": "function"
    },
    {
      "inputs": [],
      "name": "showAllVotaciones",
      "outputs": [
        {
          "components": [
            {
              "internalType": "bytes32",
              "name": "id",
              "type": "bytes32"
            },
            {
              "internalType": "bytes32",
              "name": "name",
              "type": "bytes32"
            },
            {
              "internalType": "bytes32[]",
              "name": "candidatos",
              "type": "bytes32[]"
            }
          ],
          "internalType": "struct Urnas.Votacion[]",
          "name": "_votaciones",
          "type": "tuple[]"
        }
      ],
      "stateMutability": "view",
      "type": "function"
    }
  ],
  "bytecode": "0x608060405234801561001057600080fd5b5061090c806100206000396000f3fe608060405234801561001057600080fd5b50600436106100575760003560e01c80632e4176cf1461005c5780635acf57b51461007a578063834c0a6b146100ab578063a92284d0146100c7578063caf6e091146100f8575b600080fd5b610064610116565b60405161007191906106b2565b60405180910390f35b610094600480360381019061008f91906104cc565b61013a565b6040516100a2929190610718565b60405180910390f35b6100c560048036038101906100c09190610478565b61016b565b005b6100e160048036038101906100dc919061044f565b6102da565b6040516100ef9291906106cd565b60405180910390f35b61010061031e565b60405161010d91906106f6565b60405180910390f35b60008054906101000a900473ffffffffffffffffffffffffffffffffffffffff1681565b6002818154811061014757fe5b90600052602060002090600302016000915090508060000154908060010154905082565b336000806101000a81548173ffffffffffffffffffffffffffffffffffffffff021916908373ffffffffffffffffffffffffffffffffffffffff1602179055506000336040516020016101be9190610697565b60405160208183030381529060405280519060200120905060018060008060009054906101000a900473ffffffffffffffffffffffffffffffffffffffff1673ffffffffffffffffffffffffffffffffffffffff1673ffffffffffffffffffffffffffffffffffffffff1681526020019081526020016000206002018190555060005b6002805490508110156102d45760026040518060600160405280848152602001868152602001858152509080600181540180825580915050600190039060005260206000209060030201600090919091909150600082015181600001556020820151816001015560408201518160020190805190602001906102c4929190610323565b5050508080600101915050610241565b50505050565b60016020528060005260406000206000915090508060000160009054906101000a900473ffffffffffffffffffffffffffffffffffffffff16908060020154905082565b606090565b82805482825590600052602060002090810192821561035f579160200282015b8281111561035e578251825591602001919060010190610343565b5b50905061036c9190610370565b5090565b5b80821115610389576000816000905550600101610371565b5090565b60008135905061039c81610891565b92915050565b600082601f8301126103b357600080fd5b81356103c66103c18261076e565b610741565b915081818352602084019350602081019050838560208402820111156103eb57600080fd5b60005b8381101561041b57816104018882610425565b8452602084019350602083019250506001810190506103ee565b5050505092915050565b600081359050610434816108a8565b92915050565b600081359050610449816108bf565b92915050565b60006020828403121561046157600080fd5b600061046f8482850161038d565b91505092915050565b6000806040838503121561048b57600080fd5b600061049985828601610425565b925050602083013567ffffffffffffffff8111156104b657600080fd5b6104c2858286016103a2565b9150509250929050565b6000602082840312156104de57600080fd5b60006104ec8482850161043a565b91505092915050565b6000610501838361061a565b60208301905092915050565b60006105198383610638565b905092915050565b61053261052d8261081a565b610860565b82525050565b61054181610808565b82525050565b6000610552826107b6565b61055c81856107e6565b935061056783610796565b8060005b8381101561059857815161057f88826104f5565b975061058a836107cc565b92505060018101905061056b565b5085935050505092915050565b60006105b0826107c1565b6105ba81856107f7565b9350836020820285016105cc856107a6565b8060005b8581101561060857848403895281516105e9858261050d565b94506105f4836107d9565b925060208a019950506001810190506105d0565b50829750879550505050505092915050565b6106238161082c565b82525050565b6106328161082c565b82525050565b6000606083016000830151610650600086018261061a565b506020830151610663602086018261061a565b506040830151848203604086015261067b8282610547565b9150508091505092915050565b61069181610856565b82525050565b60006106a38284610521565b60148201915081905092915050565b60006020820190506106c76000830184610538565b92915050565b60006040820190506106e26000830185610538565b6106ef6020830184610688565b9392505050565b6000602082019050818103600083015261071081846105a5565b905092915050565b600060408201905061072d6000830185610629565b61073a6020830184610629565b9392505050565b6000604051905081810181811067ffffffffffffffff8211171561076457600080fd5b8060405250919050565b600067ffffffffffffffff82111561078557600080fd5b602082029050602081019050919050565b6000819050602082019050919050565b6000819050602082019050919050565b600081519050919050565b600081519050919050565b6000602082019050919050565b6000602082019050919050565b600082825260208201905092915050565b600082825260208201905092915050565b600061081382610836565b9050919050565b600061082582610836565b9050919050565b6000819050919050565b600073ffffffffffffffffffffffffffffffffffffffff82169050919050565b6000819050919050565b600061086b82610872565b9050919050565b600061087d82610884565b9050919050565b60008160601b9050919050565b61089a81610808565b81146108a557600080fd5b50565b6108b18161082c565b81146108bc57600080fd5b50565b6108c881610856565b81146108d357600080fd5b5056fea2646970667358221220f26ea90faf50d5e253680e165beca40421d712a0d838056f57e28a80835679bf64736f6c63430007010033",
  "immutableReferences": {},
  "source": "// SPDX-License-Identifier: GPL-3.0\npragma solidity >=0.7.0 <0.9.0;\npragma experimental ABIEncoderV2;\n\n/**\n * @title Urnas\n * @dev Implements voting process along with vote delegation\n */\ncontract Urnas {\n    struct Voto {\n        address id_Votante; // address candidato\n        bytes32 id_Votacion; // hash votacion\n        int32 weigth; // candidato elegido\n    }\n\n    struct Votante {\n        address addres; // adress wallet\n        bytes32[] voted; // id de votacion + if true, that person already voted\n        uint256 weight; // vote value\n    }\n\n    struct Votacion {\n        // If you can limit the length to a certain number of bytes,\n        // always use one of bytes1 to bytes32 because they are much cheaper\n        bytes32 id; // hash\n        bytes32 name; // short name (up to 32 bytes)\n        bytes32[] candidatos; // Array de int\n    }\n\n    address public chairperson;\n    mapping(address => Votante) public votantes;\n    Votacion[] public votaciones;\n\n    /**\n     * @dev Return the list of options of the porposal.\n     * @param name name of porposal\n     * @param candidatos name of porposal\n     */\n    function crearVotacion(bytes32 name, bytes32[] memory candidatos) public {\n        chairperson = msg.sender;\n        bytes32 id_ = bytes32(keccak256(abi.encodePacked(msg.sender)));\n\n        votantes[chairperson].weight = 1;\n        // 'Proposal({...})' creates a temporary\n        // Proposal object and 'proposals.push(...)'\n        // appends it to the end of 'proposals'.\n        for (uint256 i = 0; i < votaciones.length; i++) {\n            votaciones.push(\n                Votacion({id: id_, name: name, candidatos: candidatos})\n            );\n        }\n    }\n\n    function showAllVotaciones()\n        public\n        view\n        returns (Votacion[] memory _votaciones)\n    {\n        return _votaciones;\n    }\n\n    // function getData()\n    //     external\n    //     view\n    //     returns (bytes32 name, bytes32[] memory candidatos)\n    // {\n    //     for (uint256 i = 0; i < votaciones.length;  {\n    //         Votacion memory votacion = votaciones[i];\n    //         votacion.name = name;\n    //         votacion.candidatos = candidatos;\n\n    //         return (name, candidatos);\n    //     }\n    // }\n\n    // /**\n    //  * @dev Give 'voter' the right to vote on this ballot. May only be called by 'chairperson'.\n    //  * @param candidatos data de la votacion\n    //  */\n    // function getVotacion(bytes32 votacionHash)\n    //     public\n    //     view\n    //     returns (bytes32[] memory candidatos)\n    // {\n    //     for (uint256 i = 0; i < votaciones.length; i++) {\n    //         if (votaciones[i].id == votacionHash) {\n    //             Votacion storage sender = votaciones[i];\n\n    //             candidatos = sender.candidatos;\n    //         }\n    //     }\n\n    //     return (candidatos);\n    // }\n\n    // /**\n    //  * @dev Give 'voter' the right to vote on this ballot. May only be called by 'chairperson'.\n    //  * @param votante address of voter\n    //  */\n    // function giveRightToVote(address votante) public {\n    //     require(\n    //         msg.sender == chairperson,\n    //         \"Only chairperson can give right to vote.\"\n    //     );\n    //     require(!votantes[votante].voted, \"The voter already voted.\");\n    //     require(votantes[votante].weight == 0);\n    //     votantes[votante].weight = 1;\n    // }\n\n    /**\n     * @dev Give your vote (including votes delegated to you) to proposal 'proposals[proposal].name'.\n     * @param votacion index of proposal in the proposals array\n     */\n\n    // function vote(bytes32[] calldata votacion, uint256 weight) public {\n    //     Votante storage sender = votantes[msg.sender];\n    //     require(sender.weight != 0, \"No tienes permiso para votar.\");\n\n    //     sender.Votacion[1] = votacion;\n    //     sender.weight = weight;\n    //     // If 'proposal' is out of the range of the array,\n    //     // this will throw automatically and revert all\n    //     // changes.\n    //     votaciones[votacion].voteCount += sender.weight;\n    // }\n\n    // /**\n    //  * @dev Computes the winning proposal taking all previous votes into account.\n    //  * @return winningProposal_ index of winning proposal in the proposals array\n    //  */\n    // function winningProposal() public view returns (uint256 winningProposal_) {\n    //     uint256 winningVoteCount = 0;\n    //     for (uint256 v = 0; v < votaciones.length; v++) {\n    //         if (votaciones[v].voteCount > winningVoteCount) {\n    //             winningVoteCount = votaciones[v].voteCount;\n    //             winningProposal_ = v;\n    //         }\n    //     }\n    // }\n\n    // /**\n    //  * @dev Calls winningProposal() function to get the index of the winner contained in the proposals array and then\n    //  * @return winnerName_ the name of the winner\n    //  */\n    // function winnerName() public view returns (bytes32 winnerName_) {\n    //     winnerName_ = votaciones[winningProposal()].name;\n    // }\n}\n",
  "sourcePath": "/home/oswill/Escritorio/BACKUP-2022/reactApp/contracts/Urnas.sol",
  "compiler": {
    "name": "solc",
    "version": "0.7.1+commit.f4a555be.Emscripten.clang"
  },
  "schemaVersion": "3.4.5",
  "updatedAt": "2022-03-08T20:37:41.499Z",
  "devdoc": {
    "details": "Implements voting process along with vote delegation",
    "kind": "dev",
    "methods": {
      "crearVotacion(bytes32,bytes32[])": {
        "details": "Return the list of options of the porposal.",
        "params": {
          "candidatos": "name of porposal",
          "name": "name of porposal"
        }
      }
    },
    "title": "Urnas",
    "version": 1
  },
  "userdoc": {
    "kind": "user",
    "methods": {},
    "version": 1
  }
}