{
  "contractName": "Urnas",
  "abi": [
    {
      "inputs": [],
      "name": "chairperson",
      "outputs": [
        {
          "internalType": "address",
          "name": "",
          "type": "address"
        }
      ],
      "stateMutability": "view",
      "type": "function",
      "constant": true
    },
    {
      "inputs": [
        {
          "internalType": "uint256",
          "name": "",
          "type": "uint256"
        }
      ],
      "name": "votaciones",
      "outputs": [
        {
          "internalType": "uint256",
          "name": "id",
          "type": "uint256"
        },
        {
          "internalType": "bytes32",
          "name": "name",
          "type": "bytes32"
        },
        {
          "internalType": "uint256",
          "name": "voteCount",
          "type": "uint256"
        }
      ],
      "stateMutability": "view",
      "type": "function",
      "constant": true
    },
    {
      "inputs": [
        {
          "internalType": "address",
          "name": "",
          "type": "address"
        }
      ],
      "name": "votantes",
      "outputs": [
        {
          "internalType": "uint256",
          "name": "weight",
          "type": "uint256"
        },
        {
          "internalType": "address",
          "name": "addres",
          "type": "address"
        },
        {
          "internalType": "bool",
          "name": "voted",
          "type": "bool"
        }
      ],
      "stateMutability": "view",
      "type": "function",
      "constant": true
    },
    {
      "inputs": [
        {
          "internalType": "uint256",
          "name": "_id",
          "type": "uint256"
        },
        {
          "internalType": "bytes32",
          "name": "_name",
          "type": "bytes32"
        },
        {
          "internalType": "bytes32[]",
          "name": "_candidatos",
          "type": "bytes32[]"
        }
      ],
      "name": "crearVotacion",
      "outputs": [],
      "stateMutability": "nonpayable",
      "type": "function"
    },
    {
      "inputs": [
        {
          "internalType": "uint256",
          "name": "_id",
          "type": "uint256"
        }
      ],
      "name": "showVotacion",
      "outputs": [
        {
          "components": [
            {
              "internalType": "uint256",
              "name": "id",
              "type": "uint256"
            },
            {
              "internalType": "bytes32",
              "name": "name",
              "type": "bytes32"
            },
            {
              "internalType": "bytes32[]",
              "name": "candidatos",
              "type": "bytes32[]"
            },
            {
              "internalType": "uint256",
              "name": "voteCount",
              "type": "uint256"
            }
          ],
          "internalType": "struct Urnas.Votacion",
          "name": "",
          "type": "tuple"
        }
      ],
      "stateMutability": "view",
      "type": "function",
      "constant": true
    },
    {
      "inputs": [],
      "name": "showIds",
      "outputs": [
        {
          "internalType": "uint256[]",
          "name": "id",
          "type": "uint256[]"
        }
      ],
      "stateMutability": "view",
      "type": "function",
      "constant": true
    },
    {
      "inputs": [],
      "name": "showNames",
      "outputs": [
        {
          "internalType": "bytes32[]",
          "name": "name",
          "type": "bytes32[]"
        }
      ],
      "stateMutability": "view",
      "type": "function",
      "constant": true
    },
    {
      "inputs": [
        {
          "internalType": "uint256",
          "name": "proposal",
          "type": "uint256"
        },
        {
          "internalType": "uint256",
          "name": "weigth",
          "type": "uint256"
        }
      ],
      "name": "vote",
      "outputs": [],
      "stateMutability": "nonpayable",
      "type": "function"
    }
  ],
  "bytecode": "0x6080604052600060015534801561001557600080fd5b50610c7a806100256000396000f3fe608060405234801561001057600080fd5b50600436106100885760003560e01c8063619f3bb41161005b578063619f3bb41461012b578063626088d314610149578063a92284d014610165578063b384abef1461019757610088565b80632e4176cf1461008d57806349a5ddd7146100ab5780634dc7e587146100db5780635acf57b5146100f9575b600080fd5b6100956101b3565b6040516100a291906109e6565b60405180910390f35b6100c560048036038101906100c09190610713565b6101d7565b6040516100d29190610a45565b60405180910390f35b6100e3610282565b6040516100f09190610a01565b60405180910390f35b610113600480360381019061010e9190610713565b6102da565b60405161012293929190610a9e565b60405180910390f35b610133610304565b6040516101409190610a23565b60405180910390f35b610163600480360381019061015e919061073c565b61035c565b005b61017f600480360381019061017a91906106ea565b61049e565b60405161018e93929190610a67565b60405180910390f35b6101b160048036038101906101ac91906107a3565b6104f5565b005b60008054906101000a900473ffffffffffffffffffffffffffffffffffffffff1681565b6101df610593565b600682815481106101ec57fe5b906000526020600020906004020160405180608001604052908160008201548152602001600182015481526020016002820180548060200260200160405190810160405280929190818152602001828054801561026857602002820191906000526020600020905b815481526020019060010190808311610254575b505050505081526020016003820154815250509050919050565b606060058054806020026020016040519081016040528092919081815260200182805480156102d057602002820191906000526020600020905b8154815260200190600101908083116102bc575b5050505050905090565b60036020528060005260406000206000915090508060000154908060010154908060030154905083565b6060600480548060200260200160405190810160405280929190818152602001828054801561035257602002820191906000526020600020905b81548152602001906001019080831161033e575b5050505050905090565b826003600085815260200190815260200160002060000181905550816003600085815260200190815260200160002060010181905550806003600085815260200190815260200160002060020190805190602001906103bc9291906105be565b506004839080600181540180825580915050600190039060005260206000200160009091909190915055600582908060018154018082558091505060019003906000526020600020016000909190919091505560066040518060800160405280858152602001848152602001838152602001600081525090806001815401808255809150506001900390600052602060002090600402016000909190919091506000820151816000015560208201518160010155604082015181600201908051906020019061048c9291906105be565b50606082015181600301555050505050565b60026020528060005260406000206000915090508060000154908060010160009054906101000a900473ffffffffffffffffffffffffffffffffffffffff16908060010160149054906101000a900460ff16905083565b6000600260003373ffffffffffffffffffffffffffffffffffffffff1673ffffffffffffffffffffffffffffffffffffffff168152602001908152602001600020905060018160010160146101000a81548160ff02191690831515021790555081816000018190555080600001546006848154811061057057fe5b906000526020600020906004020160030160008282540192505081905550505050565b6040518060800160405280600081526020016000801916815260200160608152602001600081525090565b8280548282559060005260206000209081019282156105fa579160200282015b828111156105f95782518255916020019190600101906105de565b5b509050610607919061060b565b5090565b5b8082111561062457600081600090555060010161060c565b5090565b60008135905061063781610bff565b92915050565b600082601f83011261064e57600080fd5b813561066161065c82610b02565b610ad5565b9150818183526020840193506020810190508385602084028201111561068657600080fd5b60005b838110156106b6578161069c88826106c0565b845260208401935060208301925050600181019050610689565b5050505092915050565b6000813590506106cf81610c16565b92915050565b6000813590506106e481610c2d565b92915050565b6000602082840312156106fc57600080fd5b600061070a84828501610628565b91505092915050565b60006020828403121561072557600080fd5b6000610733848285016106d5565b91505092915050565b60008060006060848603121561075157600080fd5b600061075f868287016106d5565b9350506020610770868287016106c0565b925050604084013567ffffffffffffffff81111561078d57600080fd5b6107998682870161063d565b9150509250925092565b600080604083850312156107b657600080fd5b60006107c4858286016106d5565b92505060206107d5858286016106d5565b9150509250929050565b60006107eb8383610947565b60208301905092915050565b600061080383836109c8565b60208301905092915050565b61081881610bad565b82525050565b600061082982610b4a565b6108338185610b7a565b935061083e83610b2a565b8060005b8381101561086f57815161085688826107df565b975061086183610b60565b925050600181019050610842565b5085935050505092915050565b600061088782610b4a565b6108918185610b8b565b935061089c83610b2a565b8060005b838110156108cd5781516108b488826107df565b97506108bf83610b60565b9250506001810190506108a0565b5085935050505092915050565b60006108e582610b55565b6108ef8185610b9c565b93506108fa83610b3a565b8060005b8381101561092b57815161091288826107f7565b975061091d83610b6d565b9250506001810190506108fe565b5085935050505092915050565b61094181610bbf565b82525050565b61095081610bcb565b82525050565b61095f81610bcb565b82525050565b600060808301600083015161097d60008601826109c8565b5060208301516109906020860182610947565b50604083015184820360408601526109a8828261081e565b91505060608301516109bd60608601826109c8565b508091505092915050565b6109d181610bf5565b82525050565b6109e081610bf5565b82525050565b60006020820190506109fb600083018461080f565b92915050565b60006020820190508181036000830152610a1b818461087c565b905092915050565b60006020820190508181036000830152610a3d81846108da565b905092915050565b60006020820190508181036000830152610a5f8184610965565b905092915050565b6000606082019050610a7c60008301866109d7565b610a89602083018561080f565b610a966040830184610938565b949350505050565b6000606082019050610ab360008301866109d7565b610ac06020830185610956565b610acd60408301846109d7565b949350505050565b6000604051905081810181811067ffffffffffffffff82111715610af857600080fd5b8060405250919050565b600067ffffffffffffffff821115610b1957600080fd5b602082029050602081019050919050565b6000819050602082019050919050565b6000819050602082019050919050565b600081519050919050565b600081519050919050565b6000602082019050919050565b6000602082019050919050565b600082825260208201905092915050565b600082825260208201905092915050565b600082825260208201905092915050565b6000610bb882610bd5565b9050919050565b60008115159050919050565b6000819050919050565b600073ffffffffffffffffffffffffffffffffffffffff82169050919050565b6000819050919050565b610c0881610bad565b8114610c1357600080fd5b50565b610c1f81610bcb565b8114610c2a57600080fd5b50565b610c3681610bf5565b8114610c4157600080fd5b5056fea2646970667358221220b21eb887d0ebd3e9c93b8b58399a351f577c9ca779e28eb2b8995f0c68aec65164736f6c63430007010033",
  "immutableReferences": {},
  "source": "// SPDX-License-Identifier: GPL-3.0\npragma solidity >=0.7.0 <0.9.0;\npragma experimental ABIEncoderV2;\n\n/**\n * @title Urnas\n * @dev Implements voting process along with vote delegation\n */\ncontract Urnas {\n    struct Votante {\n        uint256 weight; // vote value\n        address addres; // adress wallet\n        bool voted; // id de votacion. if true, that person already voted\n    }\n\n    struct Votacion {\n        // If you can limit the length to a certain number of bytes,\n        // always use one of bytes1 to bytes32 because they are much cheaper\n        uint256 id; // hash\n        bytes32 name; // short name (up to 32 bytes)\n        bytes32[] candidatos; // Array de int\n        uint256 voteCount;\n    }\n\n    address public chairperson;\n    uint256 randNonce = 0;\n    mapping(address => Votante) public votantes;\n    // mapping(address => Votacion) public votaciones;\n    mapping(uint256 => Votacion) public votaciones;\n    uint256[] ids;\n    bytes32[] names;\n    Votacion[] proposals;\n\n    // Votacion[] proposals;\n\n    // Votacion[] public votaciones;\n\n    /**\n     * @dev Return the list of options of the porposal.\n     * @param _id id of porposal\n     * @param _name name of porposal\n     * @param _candidatos name of porposal\n     */\n    function crearVotacion(\n        uint256 _id,\n        bytes32 _name,\n        bytes32[] memory _candidatos\n    ) public {\n        votaciones[_id].id = _id;\n        votaciones[_id].name = _name;\n        votaciones[_id].candidatos = _candidatos;\n        ids.push(_id);\n        names.push(_name);\n        proposals.push(\n            Votacion({\n                id: _id,\n                name: _name,\n                candidatos: _candidatos,\n                voteCount: 0\n            })\n        );\n\n        // votantes[chairperson].weight = 1;\n        // 'Proposal({...})' creates a temporary\n        // Proposal object and 'proposals.push(...)'\n        // appends it to the end of 'proposals'.\n    }\n\n    // function showVotacion(uint256 _id) public view returns (Votacion memory) {\n    //     return votaciones[_id];\n    // }\n\n    function showVotacion(uint256 _id) public view returns (Votacion memory) {\n        return proposals[_id];\n    }\n\n    // function showVotaciones() public view returns (Votacion[] memory) {\n    //     return votaciones;\n    // }\n\n    function showIds() public view returns (uint256[] memory id) {\n        return ids;\n    }\n\n    function showNames() public view returns (bytes32[] memory name) {\n        return names;\n    }\n\n    function vote(uint256 proposal, uint256 weigth) public {\n        Votante storage sender = votantes[msg.sender];\n        sender.voted = true;\n        sender.weight = weigth;\n\n        // If 'proposal' is out of the range of the array,\n        // this will throw automatically and revert all\n        // changes.\n        proposals[proposal].voteCount += sender.weight;\n    }\n\n    // function getData()\n    //     external\n    //     view\n    //     returns (bytes32 name, bytes32[] memory candidatos)\n    // {\n    //     for (uint256 i = 0; i < votaciones.length;  {\n    //         Votacion memory votacion = votaciones[i];\n    //         votacion.name = name;\n    //         votacion.candidatos = candidatos;\n\n    //         return (name, candidatos);\n    //     }\n    // }\n\n    // /**\n    //  * @dev Give 'voter' the right to vote on this ballot. May only be called by 'chairperson'.\n    //  * @param candidatos data de la votacion\n    //  */\n    // function getVotacion(bytes32 votacionHash)\n    //     public\n    //     view\n    //     returns (bytes32[] memory candidatos)\n    // {\n    //     for (uint256 i = 0; i < votaciones.length; i++) {\n    //         if (votaciones[i].id == votacionHash) {\n    //             Votacion storage sender = votaciones[i];\n\n    //             candidatos = sender.candidatos;\n    //         }\n    //     }\n\n    //     return (candidatos);\n    // }\n\n    // /**\n    //  * @dev Give 'voter' the right to vote on this ballot. May only be called by 'chairperson'.\n    //  * @param votante address of voter\n    //  */\n    // function giveRightToVote(address votante) public {\n    //     require(\n    //         msg.sender == chairperson,\n    //         \"Only chairperson can give right to vote.\"\n    //     );\n    //     require(!votantes[votante].voted, \"The voter already voted.\");\n    //     require(votantes[votante].weight == 0);\n    //     votantes[votante].weight = 1;\n    // }\n\n    /**\n     * @dev Give your vote (including votes delegated to you) to proposal 'proposals[proposal].name'.\n     * @param votacion index of proposal in the proposals array\n     */\n\n    // function vote(bytes32[] calldata votacion, uint256 weight) public {\n    //     Votante storage sender = votantes[msg.sender];\n    //     require(sender.weight != 0, \"No tienes permiso para votar.\");\n\n    //     sender.Votacion[1] = votacion;\n    //     sender.weight = weight;\n    //     // If 'proposal' is out of the range of the array,\n    //     // this will throw automatically and revert all\n    //     // changes.\n    //     votaciones[votacion].voteCount += sender.weight;\n    // }\n\n    // /**\n    //  * @dev Computes the winning proposal taking all previous votes into account.\n    //  * @return winningProposal_ index of winning proposal in the proposals array\n    //  */\n    // function winningProposal() public view returns (uint256 winningProposal_) {\n    //     uint256 winningVoteCount = 0;\n    //     for (uint256 v = 0; v < votaciones.length; v++) {\n    //         if (votaciones[v].voteCount > winningVoteCount) {\n    //             winningVoteCount = votaciones[v].voteCount;\n    //             winningProposal_ = v;\n    //         }\n    //     }\n    // }\n\n    // /**\n    //  * @dev Calls winningProposal() function to get the index of the winner contained in the proposals array and then\n    //  * @return winnerName_ the name of the winner\n    //  */\n    // function winnerName() public view returns (bytes32 winnerName_) {\n    //     winnerName_ = votaciones[winningProposal()].name;\n    // }\n}\n",
  "sourcePath": "/home/oswill/Escritorio/BACKUP-2022/reactApp/contracts/Urnas.sol",
  "compiler": {
    "name": "solc",
    "version": "0.7.1+commit.f4a555be.Emscripten.clang"
  },
  "schemaVersion": "3.4.5",
  "updatedAt": "2022-05-08T16:54:11.154Z",
  "networkType": "ethereum",
  "devdoc": {
    "details": "Implements voting process along with vote delegation",
    "kind": "dev",
    "methods": {
      "crearVotacion(uint256,bytes32,bytes32[])": {
        "details": "Return the list of options of the porposal.",
        "params": {
          "_candidatos": "name of porposal",
          "_id": "id of porposal",
          "_name": "name of porposal"
        }
      }
    },
    "title": "Urnas",
    "version": 1
  },
  "userdoc": {
    "kind": "user",
    "methods": {},
    "version": 1
  }
}