{
  "contractName": "Urnas",
  "abi": [
    {
      "anonymous": false,
      "inputs": [
        {
          "components": [
            {
              "internalType": "uint256",
              "name": "id",
              "type": "uint256"
            },
            {
              "internalType": "bytes32",
              "name": "name",
              "type": "bytes32"
            },
            {
              "internalType": "bytes32[]",
              "name": "candidatos",
              "type": "bytes32[]"
            }
          ],
          "indexed": false,
          "internalType": "struct Urnas.Votacion",
          "name": "_a",
          "type": "tuple"
        }
      ],
      "name": "FCalled",
      "type": "event"
    },
    {
      "inputs": [],
      "name": "chairperson",
      "outputs": [
        {
          "internalType": "address",
          "name": "",
          "type": "address"
        }
      ],
      "stateMutability": "view",
      "type": "function"
    },
    {
      "inputs": [
        {
          "internalType": "uint256",
          "name": "",
          "type": "uint256"
        }
      ],
      "name": "votaciones",
      "outputs": [
        {
          "internalType": "uint256",
          "name": "id",
          "type": "uint256"
        },
        {
          "internalType": "bytes32",
          "name": "name",
          "type": "bytes32"
        }
      ],
      "stateMutability": "view",
      "type": "function"
    },
    {
      "inputs": [
        {
          "internalType": "address",
          "name": "",
          "type": "address"
        }
      ],
      "name": "votantes",
      "outputs": [
        {
          "internalType": "address",
          "name": "addres",
          "type": "address"
        },
        {
          "internalType": "uint256",
          "name": "weight",
          "type": "uint256"
        }
      ],
      "stateMutability": "view",
      "type": "function"
    },
    {
      "inputs": [
        {
          "internalType": "bytes32",
          "name": "name",
          "type": "bytes32"
        },
        {
          "internalType": "bytes32[]",
          "name": "candidatos",
          "type": "bytes32[]"
        }
      ],
      "name": "crearVotacion",
      "outputs": [],
      "stateMutability": "nonpayable",
      "type": "function"
    },
    {
      "inputs": [],
      "name": "showAllVotaciones",
      "outputs": [],
      "stateMutability": "nonpayable",
      "type": "function"
    }
  ],
  "bytecode": "0x608060405234801561001057600080fd5b506108e9806100206000396000f3fe608060405234801561001057600080fd5b50600436106100575760003560e01c80632e4176cf1461005c5780635acf57b51461007a578063834c0a6b146100ab578063a92284d0146100c7578063caf6e091146100f8575b600080fd5b610064610102565b604051610071919061065b565b60405180910390f35b610094600480360381019061008f91906104d1565b610126565b6040516100a29291906106c1565b60405180910390f35b6100c560048036038101906100c0919061047d565b610157565b005b6100e160048036038101906100dc9190610454565b61024f565b6040516100ef929190610676565b60405180910390f35b610100610293565b005b60008054906101000a900473ffffffffffffffffffffffffffffffffffffffff1681565b6003818154811061013357fe5b90600052602060002090600302016000915090508060000154908060010154905082565b336000806101000a81548173ffffffffffffffffffffffffffffffffffffffff021916908373ffffffffffffffffffffffffffffffffffffffff1602179055506000336040516020016101aa9190610640565b6040516020818303038152906040528051906020012060001c90506101cd610304565b8181600001818152505083816020018181525050828160400181905250600381908060018154018082558091505060019003906000526020600020906003020160009091909190915060008201518160000155602082015181600101556040820151816002019080519060200190610246929190610328565b50505050505050565b60016020528060005260406000206000915090508060000160009054906101000a900473ffffffffffffffffffffffffffffffffffffffff16908060020154905082565b60005b600380549050811015610301577f069d24984559dce729465c24e574cfa0721c15a0f92833b631475646570d7c4d600382815481106102d157fe5b90600052602060002090600302016040516102ec919061069f565b60405180910390a18080600101915050610296565b50565b60405180606001604052806000815260200160008019168152602001606081525090565b828054828255906000526020600020908101928215610364579160200282015b82811115610363578251825591602001919060010190610348565b5b5090506103719190610375565b5090565b5b8082111561038e576000816000905550600101610376565b5090565b6000813590506103a18161086e565b92915050565b600082601f8301126103b857600080fd5b81356103cb6103c682610717565b6106ea565b915081818352602084019350602081019050838560208402820111156103f057600080fd5b60005b838110156104205781610406888261042a565b8452602084019350602083019250506001810190506103f3565b5050505092915050565b60008135905061043981610885565b92915050565b60008135905061044e8161089c565b92915050565b60006020828403121561046657600080fd5b600061047484828501610392565b91505092915050565b6000806040838503121561049057600080fd5b600061049e8582860161042a565b925050602083013567ffffffffffffffff8111156104bb57600080fd5b6104c7858286016103a7565b9150509250929050565b6000602082840312156104e357600080fd5b60006104f18482850161043f565b91505092915050565b6000610506838361059d565b60208301905092915050565b61052361051e826107a3565b61081d565b82525050565b61053281610791565b82525050565b600061054382610754565b61054d818561076c565b93506105588361073f565b8060005b838110156105905761056d82610841565b61057788826104fa565b97506105828361075f565b92505060018101905061055c565b5085935050505092915050565b6105a6816107b5565b82525050565b6105b5816107b5565b82525050565b60006060830160008084015490506105d281610803565b6105df6000870182610622565b50600184015490506105f0816107e9565b6105fd602087018261059d565b506002840185830360408701526106148382610538565b925050819250505092915050565b61062b816107df565b82525050565b61063a816107df565b82525050565b600061064c8284610512565b60148201915081905092915050565b60006020820190506106706000830184610529565b92915050565b600060408201905061068b6000830185610529565b6106986020830184610631565b9392505050565b600060208201905081810360008301526106b981846105bb565b905092915050565b60006040820190506106d66000830185610631565b6106e360208301846105ac565b9392505050565b6000604051905081810181811067ffffffffffffffff8211171561070d57600080fd5b8060405250919050565b600067ffffffffffffffff82111561072e57600080fd5b602082029050602081019050919050565b60008190508160005260206000209050919050565b600081549050919050565b6000600182019050919050565b600082825260208201905092915050565b6000819050919050565b6000819050919050565b600061079c826107bf565b9050919050565b60006107ae826107bf565b9050919050565b6000819050919050565b600073ffffffffffffffffffffffffffffffffffffffff82169050919050565b6000819050919050565b60006107fc6107f783610861565b61077d565b9050919050565b600061081661081183610861565b610787565b9050919050565b60006108288261082f565b9050919050565b600061083a82610854565b9050919050565b600061084d82546107e9565b9050919050565b60008160601b9050919050565b60008160001c9050919050565b61087781610791565b811461088257600080fd5b50565b61088e816107b5565b811461089957600080fd5b50565b6108a5816107df565b81146108b057600080fd5b5056fea26469706673582212204deb44acd33c8014118dfa21176828ec3e6d8f08e4614ad8d53c0e648e77e4b964736f6c63430007010033",
  "immutableReferences": {},
  "source": "// SPDX-License-Identifier: GPL-3.0\npragma solidity >=0.7.0 <0.9.0;\npragma experimental ABIEncoderV2;\n\n/**\n * @title Urnas\n * @dev Implements voting process along with vote delegation\n */\ncontract Urnas {\n    struct Voto {\n        address id_Votante; // address candidato\n        bytes32 id_Votacion; // hash votacion\n        int32 weigth; // candidato elegido\n    }\n\n    struct Votante {\n        address addres; // adress wallet\n        bytes32[] voted; // id de votacion + if true, that person already voted\n        uint256 weight; // vote value\n    }\n\n    struct Votacion {\n        // If you can limit the length to a certain number of bytes,\n        // always use one of bytes1 to bytes32 because they are much cheaper\n        uint256 id; // hash\n        bytes32 name; // short name (up to 32 bytes)\n        bytes32[] candidatos; // Array de int\n    }\n\n    address public chairperson;\n    mapping(address => Votante) public votantes;\n    mapping(uint256 => Votacion) votacionById;\n    Votacion[] public votaciones;\n\n    /**\n     * @dev Return the list of options of the porposal.\n     * @param name name of porposal\n     * @param candidatos name of porposal\n     */\n    function crearVotacion(bytes32 name, bytes32[] memory candidatos) public {\n        chairperson = msg.sender;\n        uint256 id_ = uint256(keccak256(abi.encodePacked(msg.sender)));\n        Votacion memory votacionTest;\n        votacionTest.id = id_;\n        votacionTest.name = name;\n        votacionTest.candidatos = candidatos;\n        votaciones.push(votacionTest);\n        // votantes[chairperson].weight = 1;\n        // 'Proposal({...})' creates a temporary\n        // Proposal object and 'proposals.push(...)'\n        // appends it to the end of 'proposals'.\n    }\n\n    event FCalled(Votacion _a);\n\n    function showAllVotaciones() public {\n        for (uint256 i = 0; i < votaciones.length; i++) {\n            emit FCalled(votaciones[i]);\n        }\n    }\n    // function getData()\n    //     external\n    //     view\n    //     returns (bytes32 name, bytes32[] memory candidatos)\n    // {\n    //     for (uint256 i = 0; i < votaciones.length;  {\n    //         Votacion memory votacion = votaciones[i];\n    //         votacion.name = name;\n    //         votacion.candidatos = candidatos;\n\n    //         return (name, candidatos);\n    //     }\n    // }\n\n    // /**\n    //  * @dev Give 'voter' the right to vote on this ballot. May only be called by 'chairperson'.\n    //  * @param candidatos data de la votacion\n    //  */\n    // function getVotacion(bytes32 votacionHash)\n    //     public\n    //     view\n    //     returns (bytes32[] memory candidatos)\n    // {\n    //     for (uint256 i = 0; i < votaciones.length; i++) {\n    //         if (votaciones[i].id == votacionHash) {\n    //             Votacion storage sender = votaciones[i];\n\n    //             candidatos = sender.candidatos;\n    //         }\n    //     }\n\n    //     return (candidatos);\n    // }\n\n    // /**\n    //  * @dev Give 'voter' the right to vote on this ballot. May only be called by 'chairperson'.\n    //  * @param votante address of voter\n    //  */\n    // function giveRightToVote(address votante) public {\n    //     require(\n    //         msg.sender == chairperson,\n    //         \"Only chairperson can give right to vote.\"\n    //     );\n    //     require(!votantes[votante].voted, \"The voter already voted.\");\n    //     require(votantes[votante].weight == 0);\n    //     votantes[votante].weight = 1;\n    // }\n\n    /**\n     * @dev Give your vote (including votes delegated to you) to proposal 'proposals[proposal].name'.\n     * @param votacion index of proposal in the proposals array\n     */\n\n    // function vote(bytes32[] calldata votacion, uint256 weight) public {\n    //     Votante storage sender = votantes[msg.sender];\n    //     require(sender.weight != 0, \"No tienes permiso para votar.\");\n\n    //     sender.Votacion[1] = votacion;\n    //     sender.weight = weight;\n    //     // If 'proposal' is out of the range of the array,\n    //     // this will throw automatically and revert all\n    //     // changes.\n    //     votaciones[votacion].voteCount += sender.weight;\n    // }\n\n    // /**\n    //  * @dev Computes the winning proposal taking all previous votes into account.\n    //  * @return winningProposal_ index of winning proposal in the proposals array\n    //  */\n    // function winningProposal() public view returns (uint256 winningProposal_) {\n    //     uint256 winningVoteCount = 0;\n    //     for (uint256 v = 0; v < votaciones.length; v++) {\n    //         if (votaciones[v].voteCount > winningVoteCount) {\n    //             winningVoteCount = votaciones[v].voteCount;\n    //             winningProposal_ = v;\n    //         }\n    //     }\n    // }\n\n    // /**\n    //  * @dev Calls winningProposal() function to get the index of the winner contained in the proposals array and then\n    //  * @return winnerName_ the name of the winner\n    //  */\n    // function winnerName() public view returns (bytes32 winnerName_) {\n    //     winnerName_ = votaciones[winningProposal()].name;\n    // }\n}\n",
  "sourcePath": "/home/oswill/Escritorio/BACKUP-2022/reactApp/contracts/Urnas.sol",
  "compiler": {
    "name": "solc",
    "version": "0.7.1+commit.f4a555be.Emscripten.clang"
  },
  "schemaVersion": "3.4.5",
  "updatedAt": "2022-03-20T19:06:23.607Z",
  "devdoc": {
    "details": "Implements voting process along with vote delegation",
    "kind": "dev",
    "methods": {
      "crearVotacion(bytes32,bytes32[])": {
        "details": "Return the list of options of the porposal.",
        "params": {
          "candidatos": "name of porposal",
          "name": "name of porposal"
        }
      }
    },
    "title": "Urnas",
    "version": 1
  },
  "userdoc": {
    "kind": "user",
    "methods": {},
    "version": 1
  }
}