{
  "contractName": "Urnas",
  "abi": [
    {
      "inputs": [],
      "name": "chairperson",
      "outputs": [
        {
          "internalType": "address",
          "name": "",
          "type": "address"
        }
      ],
      "stateMutability": "view",
      "type": "function"
    },
    {
      "inputs": [
        {
          "internalType": "uint256",
          "name": "",
          "type": "uint256"
        }
      ],
      "name": "votaciones",
      "outputs": [
        {
          "internalType": "bytes32",
          "name": "id",
          "type": "bytes32"
        },
        {
          "internalType": "bytes32",
          "name": "name",
          "type": "bytes32"
        }
      ],
      "stateMutability": "view",
      "type": "function"
    },
    {
      "inputs": [
        {
          "internalType": "address",
          "name": "",
          "type": "address"
        }
      ],
      "name": "votantes",
      "outputs": [
        {
          "internalType": "address",
          "name": "addres",
          "type": "address"
        },
        {
          "internalType": "uint256",
          "name": "weight",
          "type": "uint256"
        }
      ],
      "stateMutability": "view",
      "type": "function"
    },
    {
      "inputs": [
        {
          "internalType": "bytes32",
          "name": "name",
          "type": "bytes32"
        },
        {
          "internalType": "bytes32[]",
          "name": "candidatos",
          "type": "bytes32[]"
        }
      ],
      "name": "crearVotacion",
      "outputs": [],
      "stateMutability": "nonpayable",
      "type": "function"
    },
    {
      "inputs": [],
      "name": "getData",
      "outputs": [
        {
          "components": [
            {
              "internalType": "bytes32",
              "name": "id",
              "type": "bytes32"
            },
            {
              "internalType": "bytes32",
              "name": "name",
              "type": "bytes32"
            },
            {
              "internalType": "bytes32[]",
              "name": "candidatos",
              "type": "bytes32[]"
            }
          ],
          "internalType": "struct Urnas.Votacion[]",
          "name": "",
          "type": "tuple[]"
        }
      ],
      "stateMutability": "view",
      "type": "function"
    },
    {
      "inputs": [
        {
          "internalType": "bytes32",
          "name": "votacionHash",
          "type": "bytes32"
        }
      ],
      "name": "getVotacion",
      "outputs": [
        {
          "internalType": "bytes32[]",
          "name": "candidatos",
          "type": "bytes32[]"
        }
      ],
      "stateMutability": "view",
      "type": "function"
    }
  ],
  "bytecode": "0x608060405234801561001057600080fd5b50610b88806100206000396000f3fe608060405234801561001057600080fd5b50600436106100625760003560e01c80631306215c146100675780632e4176cf146100975780633bc5de30146100b55780635acf57b5146100d3578063834c0a6b14610104578063a92284d014610120575b600080fd5b610081600480360381019061007c919061063a565b610151565b60405161008e919061093f565b60405180910390f35b61009f610212565b6040516100ac91906108fb565b60405180910390f35b6100bd610236565b6040516100ca9190610961565b60405180910390f35b6100ed60048036038101906100e891906106b7565b610301565b6040516100fb929190610983565b60405180910390f35b61011e60048036038101906101199190610663565b610332565b005b61013a60048036038101906101359190610611565b6104a1565b604051610148929190610916565b60405180910390f35b606060005b60028054905081101561020c57826002828154811061017157fe5b90600052602060002090600302016000015414156101ff5760006002828154811061019857fe5b90600052602060002090600302019050806002018054806020026020016040519081016040528092919081815260200182805480156101f657602002820191906000526020600020905b8154815260200190600101908083116101e2575b50505050509250505b8080600101915050610156565b50919050565b60008054906101000a900473ffffffffffffffffffffffffffffffffffffffff1681565b60606002805480602002602001604051908101604052809291908181526020016000905b828210156102f857838290600052602060002090600302016040518060600160405290816000820154815260200160018201548152602001600282018054806020026020016040519081016040528092919081815260200182805480156102e057602002820191906000526020600020905b8154815260200190600101908083116102cc575b5050505050815250508152602001906001019061025a565b50505050905090565b6002818154811061030e57fe5b90600052602060002090600302016000915090508060000154908060010154905082565b336000806101000a81548173ffffffffffffffffffffffffffffffffffffffff021916908373ffffffffffffffffffffffffffffffffffffffff16021790555060003360405160200161038591906108e0565b60405160208183030381529060405280519060200120905060018060008060009054906101000a900473ffffffffffffffffffffffffffffffffffffffff1673ffffffffffffffffffffffffffffffffffffffff1673ffffffffffffffffffffffffffffffffffffffff1681526020019081526020016000206002018190555060005b60028054905081101561049b57600260405180606001604052808481526020018681526020018581525090806001815401808255809150506001900390600052602060002090600302016000909190919091506000820151816000015560208201518160010155604082015181600201908051906020019061048b9291906104e5565b5050508080600101915050610408565b50505050565b60016020528060005260406000206000915090508060000160009054906101000a900473ffffffffffffffffffffffffffffffffffffffff16908060020154905082565b828054828255906000526020600020908101928215610521579160200282015b82811115610520578251825591602001919060010190610505565b5b50905061052e9190610532565b5090565b5b8082111561054b576000816000905550600101610533565b5090565b60008135905061055e81610b0d565b92915050565b600082601f83011261057557600080fd5b8135610588610583826109d9565b6109ac565b915081818352602084019350602081019050838560208402820111156105ad57600080fd5b60005b838110156105dd57816105c388826105e7565b8452602084019350602083019250506001810190506105b0565b5050505092915050565b6000813590506105f681610b24565b92915050565b60008135905061060b81610b3b565b92915050565b60006020828403121561062357600080fd5b60006106318482850161054f565b91505092915050565b60006020828403121561064c57600080fd5b600061065a848285016105e7565b91505092915050565b6000806040838503121561067657600080fd5b6000610684858286016105e7565b925050602083013567ffffffffffffffff8111156106a157600080fd5b6106ad85828601610564565b9150509250929050565b6000602082840312156106c957600080fd5b60006106d7848285016105fc565b91505092915050565b60006106ec8383610863565b60208301905092915050565b60006107048383610881565b905092915050565b61071d61071882610a96565b610adc565b82525050565b61072c81610a84565b82525050565b600061073d82610a21565b6107478185610a51565b935061075283610a01565b8060005b8381101561078357815161076a88826106e0565b975061077583610a37565b925050600181019050610756565b5085935050505092915050565b600061079b82610a21565b6107a58185610a62565b93506107b083610a01565b8060005b838110156107e15781516107c888826106e0565b97506107d383610a37565b9250506001810190506107b4565b5085935050505092915050565b60006107f982610a2c565b6108038185610a73565b93508360208202850161081585610a11565b8060005b85811015610851578484038952815161083285826106f8565b945061083d83610a44565b925060208a01995050600181019050610819565b50829750879550505050505092915050565b61086c81610aa8565b82525050565b61087b81610aa8565b82525050565b60006060830160008301516108996000860182610863565b5060208301516108ac6020860182610863565b50604083015184820360408601526108c48282610732565b9150508091505092915050565b6108da81610ad2565b82525050565b60006108ec828461070c565b60148201915081905092915050565b60006020820190506109106000830184610723565b92915050565b600060408201905061092b6000830185610723565b61093860208301846108d1565b9392505050565b600060208201905081810360008301526109598184610790565b905092915050565b6000602082019050818103600083015261097b81846107ee565b905092915050565b60006040820190506109986000830185610872565b6109a56020830184610872565b9392505050565b6000604051905081810181811067ffffffffffffffff821117156109cf57600080fd5b8060405250919050565b600067ffffffffffffffff8211156109f057600080fd5b602082029050602081019050919050565b6000819050602082019050919050565b6000819050602082019050919050565b600081519050919050565b600081519050919050565b6000602082019050919050565b6000602082019050919050565b600082825260208201905092915050565b600082825260208201905092915050565b600082825260208201905092915050565b6000610a8f82610ab2565b9050919050565b6000610aa182610ab2565b9050919050565b6000819050919050565b600073ffffffffffffffffffffffffffffffffffffffff82169050919050565b6000819050919050565b6000610ae782610aee565b9050919050565b6000610af982610b00565b9050919050565b60008160601b9050919050565b610b1681610a84565b8114610b2157600080fd5b50565b610b2d81610aa8565b8114610b3857600080fd5b50565b610b4481610ad2565b8114610b4f57600080fd5b5056fea2646970667358221220bf98fe7072c9bc807d3a4e4ff1c23ebd4f6172b1af7ee9a3903be2a6f30ebe8864736f6c63430007010033",
  "immutableReferences": {},
  "source": "// SPDX-License-Identifier: GPL-3.0\npragma solidity >=0.7.0 <0.9.0;\npragma experimental ABIEncoderV2;\n\n/**\n * @title Urnas\n * @dev Implements voting process along with vote delegation\n */\ncontract Urnas {\n    struct Voto {\n        address id_Votante; // address candidato\n        bytes32 id_Votacion; // hash votacion\n        int32 weigth; // candidato elegido\n    }\n\n    struct Votante {\n        address addres; // adress wallet\n        bytes32[] voted; // id de votacion + if true, that person already voted\n        uint256 weight; // vote value\n    }\n\n    struct Votacion {\n        // If you can limit the length to a certain number of bytes,\n        // always use one of bytes1 to bytes32 because they are much cheaper\n        bytes32 id; // hash\n        bytes32 name; // short name (up to 32 bytes)\n        bytes32[] candidatos; // Array de int\n    }\n\n    address public chairperson;\n    mapping(address => Votante) public votantes;\n    Votacion[] public votaciones;\n\n    /**\n     * @dev Return the list of options of the porposal.\n     * @param name name of porposal\n     * @param candidatos name of porposal\n     */\n    function crearVotacion(bytes32 name, bytes32[] memory candidatos) public {\n        chairperson = msg.sender;\n        bytes32 id_ = bytes32(keccak256(abi.encodePacked(msg.sender)));\n\n        votantes[chairperson].weight = 1;\n        // 'Proposal({...})' creates a temporary\n        // Proposal object and 'proposals.push(...)'\n        // appends it to the end of 'proposals'.\n        for (uint256 i = 0; i < votaciones.length; i++) {\n            votaciones.push(\n                Votacion({id: id_, name: name, candidatos: candidatos})\n            );\n        }\n    }\n\n    function getData() external view returns (Votacion[] memory) {\n        return votaciones;\n    }\n\n    /**\n     * @dev Give 'voter' the right to vote on this ballot. May only be called by 'chairperson'.\n     * @param candidatos data de la votacion\n     */\n    function getVotacion(bytes32 votacionHash)\n        public\n        view\n        returns (bytes32[] memory candidatos)\n    {\n        for (uint256 i = 0; i < votaciones.length; i++) {\n            if (votaciones[i].id == votacionHash) {\n                Votacion storage sender = votaciones[i];\n\n                candidatos = sender.candidatos;\n            }\n        }\n\n        return (candidatos);\n    }\n\n    // /**\n    //  * @dev Give 'voter' the right to vote on this ballot. May only be called by 'chairperson'.\n    //  * @param votante address of voter\n    //  */\n    // function giveRightToVote(address votante) public {\n    //     require(\n    //         msg.sender == chairperson,\n    //         \"Only chairperson can give right to vote.\"\n    //     );\n    //     require(!votantes[votante].voted, \"The voter already voted.\");\n    //     require(votantes[votante].weight == 0);\n    //     votantes[votante].weight = 1;\n    // }\n\n    // /**\n    //  * @dev Give your vote (including votes delegated to you) to proposal 'proposals[proposal].name'.\n    //  * @param votacion index of proposal in the proposals array\n    //  */\n\n    // function vote(bytes32[] calldata votacion, uint256 weight) public {\n    //     Votante storage sender = votantes[msg.sender];\n    //     require(sender.weight != 0, \"No tienes permiso para votar.\");\n\n    //     sender.Votacion[1] = votacion;\n    //     sender.weight = weight;\n    //     // If 'proposal' is out of the range of the array,\n    //     // this will throw automatically and revert all\n    //     // changes.\n    //     votaciones[votacion].voteCount += sender.weight;\n    // }\n\n    // /**\n    //  * @dev Computes the winning proposal taking all previous votes into account.\n    //  * @return winningProposal_ index of winning proposal in the proposals array\n    //  */\n    // function winningProposal() public view returns (uint256 winningProposal_) {\n    //     uint256 winningVoteCount = 0;\n    //     for (uint256 v = 0; v < votaciones.length; v++) {\n    //         if (votaciones[v].voteCount > winningVoteCount) {\n    //             winningVoteCount = votaciones[v].voteCount;\n    //             winningProposal_ = v;\n    //         }\n    //     }\n    // }\n\n    // /**\n    //  * @dev Calls winningProposal() function to get the index of the winner contained in the proposals array and then\n    //  * @return winnerName_ the name of the winner\n    //  */\n    // function winnerName() public view returns (bytes32 winnerName_) {\n    //     winnerName_ = votaciones[winningProposal()].name;\n    // }\n}\n",
  "sourcePath": "/home/oswill/Documentos/reactApp/contracts/Urnas.sol",
  "compiler": {
    "name": "solc",
    "version": "0.7.1+commit.f4a555be.Emscripten.clang"
  },
  "schemaVersion": "3.4.3",
  "updatedAt": "2022-01-09T11:43:41.649Z",
  "devdoc": {
    "details": "Implements voting process along with vote delegation",
    "kind": "dev",
    "methods": {
      "crearVotacion(bytes32,bytes32[])": {
        "details": "Return the list of options of the porposal.",
        "params": {
          "candidatos": "name of porposal",
          "name": "name of porposal"
        }
      },
      "getVotacion(bytes32)": {
        "details": "Give 'voter' the right to vote on this ballot. May only be called by 'chairperson'.",
        "params": {
          "candidatos": "data de la votacion"
        }
      }
    },
    "title": "Urnas",
    "version": 1
  },
  "userdoc": {
    "kind": "user",
    "methods": {},
    "version": 1
  }
}